{
  "contractName": "AnotherWithInitialize",
  "abi": [
    {
      "constant": true,
      "inputs": [],
      "name": "anotherValue",
      "outputs": [
        {
          "name": "",
          "type": "uint256"
        }
      ],
      "payable": false,
      "stateMutability": "view",
      "type": "function"
    },
    {
      "constant": false,
      "inputs": [],
      "name": "init",
      "outputs": [],
      "payable": false,
      "stateMutability": "nonpayable",
      "type": "function"
    }
  ],
  "bytecode": "0x608060405234801561001057600080fd5b506101fa806100206000396000f3fe608060405234801561001057600080fd5b5060043610610053576000357c01000000000000000000000000000000000000000000000000000000009004806368620bd014610058578063e1c7392a14610076575b600080fd5b610060610080565b6040518082815260200191505060405180910390f35b61007e610086565b005b60335481565b600060019054906101000a900460ff16806100a557506100a461018f565b5b806100bc57506000809054906101000a900460ff16155b1515610113576040517f08c379a000000000000000000000000000000000000000000000000000000000815260040180806020018281038252602e8152602001806101a1602e913960400191505060405180910390fd5b60008060019054906101000a900460ff161590508015610163576001600060016101000a81548160ff02191690831515021790555060016000806101000a81548160ff0219169083151502179055505b602a603381905550801561018c5760008060016101000a81548160ff0219169083151502179055505b50565b600080303b9050600081149150509056fe436f6e747261637420696e7374616e63652068617320616c7265616479206265656e20696e697469616c697a6564a165627a7a723058209687fd2ad68db2cfadee6402ff3c5a471689175277afa15733849862bf7ab6080029",
  "source": "pragma solidity ^0.5.0;\n\nimport \"../Initializable.sol\";\n\ncontract WithInitialize {\n  uint public value;\n\n  function initialize() public {\n    value = 42;\n  }\n}\n\ncontract AnotherWithInitialize is Initializable {\n  uint public anotherValue;\n\n  function init() initializer public {\n    anotherValue = 42;\n  }\n}\n\ncontract WithoutInitialize {\n  function say() public pure returns (string memory) {\n    return \"WithoutInitialize\";\n  }\n}\n\ncontract WithBaseUninitialized is WithInitialize, AnotherWithInitialize {\n  uint public someValue;\n\n  function initialize() public {\n    someValue = 42;\n  }\n}\n\ncontract WithBaseInitialized is WithInitialize, AnotherWithInitialize {\n  uint public someValue;\n\n  function initialize() public {\n    WithInitialize.initialize();\n    AnotherWithInitialize.init();\n    someValue = 42;\n  }\n}\n\ncontract WithSimpleBaseUninitialized is WithoutInitialize {\n  uint public someValue;\n\n  function initialize() public {\n    someValue = 42;\n  }\n}\n\ncontract ShouldHaveInitialize is WithInitialize, AnotherWithInitialize {\n  uint public someValue;\n}\n\ncontract DoesNotNeedAnInitialize is WithInitialize, WithoutInitialize {\n  uint public someValue;\n}\n\ncontract ExtendsFromShouldHaveInitialize is ShouldHaveInitialize {\n  uint public someOtherValue;\n}\n",
  "sourcePath": "/Volumes/hd2/Sandbox/zos/packages/lib/contracts/mocks/WithInitialize.sol",
  "compiler": {
    "name": "solc",
    "version": "0.5.3+commit.10d17f24.Emscripten.clang"
  },
  "schemaVersion": "3.0.2",
  "updatedAt": "2019-06-13T20:08:01.189Z",
  "devdoc": {
    "methods": {}
  },
  "userdoc": {
    "methods": {}
  }
}