{
  "contractName": "ClashingImplementation",
  "abi": [
    {
      "constant": true,
      "inputs": [],
      "name": "admin",
      "outputs": [
        {
          "name": "",
          "type": "address"
        }
      ],
      "payable": false,
      "stateMutability": "pure",
      "type": "function"
    },
    {
      "constant": true,
      "inputs": [],
      "name": "delegatedFunction",
      "outputs": [
        {
          "name": "",
          "type": "bool"
        }
      ],
      "payable": false,
      "stateMutability": "pure",
      "type": "function"
    }
  ],
  "bytecode": "0x608060405234801561001057600080fd5b5060fd8061001f6000396000f3fe6080604052348015600f57600080fd5b5060043610604f576000357c010000000000000000000000000000000000000000000000000000000090048063abf8e0e7146054578063f851a440146074575b600080fd5b605a60bc565b604051808215151515815260200191505060405180910390f35b607a60c5565b604051808273ffffffffffffffffffffffffffffffffffffffff1673ffffffffffffffffffffffffffffffffffffffff16815260200191505060405180910390f35b60006001905090565b6000631111114290509056fea165627a7a7230582092c2a943997b841d15d491a243d1496c3fd6df899f9c4d1786afdd040d48fa310029",
  "source": "pragma solidity ^0.5.0;\n\n\n/**\n * @dev Implementation contract with an admin() function made to clash with\n * @dev AdminUpgradeabilityProxy's to test correct functioning of the\n * @dev Transparent Proxy feature.\n */\ncontract ClashingImplementation {\n\n  function admin() external pure returns (address) {\n    return 0x0000000000000000000000000000000011111142;\n  }\n\n  function delegatedFunction() external pure returns (bool) {\n    return true;\n  }\n}\n",
  "sourcePath": "/Volumes/hd2/Sandbox/zos/packages/lib/contracts/mocks/ClashingImplementation.sol",
  "compiler": {
    "name": "solc",
    "version": "0.5.3+commit.10d17f24.Emscripten.clang"
  },
  "schemaVersion": "3.0.2",
  "updatedAt": "2019-06-13T20:08:00.956Z",
  "devdoc": {
    "details": "Implementation contract with an admin() function made to clash withAdminUpgradeabilityProxy's to test correct functioning of theTransparent Proxy feature.",
    "methods": {}
  },
  "userdoc": {
    "methods": {}
  }
}