{
  "contractName": "DeprecatedApp",
  "abi": [
    {
      "constant": false,
      "inputs": [],
      "name": "renounceOwnership",
      "outputs": [],
      "payable": false,
      "stateMutability": "nonpayable",
      "type": "function"
    },
    {
      "constant": true,
      "inputs": [],
      "name": "owner",
      "outputs": [
        {
          "name": "",
          "type": "address"
        }
      ],
      "payable": false,
      "stateMutability": "view",
      "type": "function"
    },
    {
      "constant": true,
      "inputs": [],
      "name": "isOwner",
      "outputs": [
        {
          "name": "",
          "type": "bool"
        }
      ],
      "payable": false,
      "stateMutability": "view",
      "type": "function"
    },
    {
      "constant": false,
      "inputs": [
        {
          "name": "newOwner",
          "type": "address"
        }
      ],
      "name": "transferOwnership",
      "outputs": [],
      "payable": false,
      "stateMutability": "nonpayable",
      "type": "function"
    },
    {
      "inputs": [],
      "payable": false,
      "stateMutability": "nonpayable",
      "type": "constructor"
    },
    {
      "anonymous": false,
      "inputs": [
        {
          "indexed": false,
          "name": "proxy",
          "type": "address"
        }
      ],
      "name": "ProxyCreated",
      "type": "event"
    },
    {
      "anonymous": false,
      "inputs": [
        {
          "indexed": false,
          "name": "providerName",
          "type": "string"
        },
        {
          "indexed": false,
          "name": "package",
          "type": "address"
        },
        {
          "indexed": false,
          "name": "version",
          "type": "uint64[3]"
        }
      ],
      "name": "PackageChanged",
      "type": "event"
    },
    {
      "anonymous": false,
      "inputs": [
        {
          "indexed": true,
          "name": "previousOwner",
          "type": "address"
        },
        {
          "indexed": true,
          "name": "newOwner",
          "type": "address"
        }
      ],
      "name": "OwnershipTransferred",
      "type": "event"
    },
    {
      "constant": true,
      "inputs": [
        {
          "name": "packageName",
          "type": "string"
        }
      ],
      "name": "getProvider",
      "outputs": [
        {
          "name": "provider",
          "type": "address"
        }
      ],
      "payable": false,
      "stateMutability": "view",
      "type": "function"
    },
    {
      "constant": true,
      "inputs": [
        {
          "name": "packageName",
          "type": "string"
        }
      ],
      "name": "getPackage",
      "outputs": [
        {
          "name": "",
          "type": "address"
        },
        {
          "name": "",
          "type": "uint64[3]"
        }
      ],
      "payable": false,
      "stateMutability": "view",
      "type": "function"
    },
    {
      "constant": false,
      "inputs": [
        {
          "name": "packageName",
          "type": "string"
        },
        {
          "name": "package",
          "type": "address"
        },
        {
          "name": "version",
          "type": "uint64[3]"
        }
      ],
      "name": "setPackage",
      "outputs": [],
      "payable": false,
      "stateMutability": "nonpayable",
      "type": "function"
    },
    {
      "constant": false,
      "inputs": [
        {
          "name": "packageName",
          "type": "string"
        }
      ],
      "name": "unsetPackage",
      "outputs": [],
      "payable": false,
      "stateMutability": "nonpayable",
      "type": "function"
    },
    {
      "constant": true,
      "inputs": [
        {
          "name": "packageName",
          "type": "string"
        },
        {
          "name": "contractName",
          "type": "string"
        }
      ],
      "name": "getImplementation",
      "outputs": [
        {
          "name": "",
          "type": "address"
        }
      ],
      "payable": false,
      "stateMutability": "view",
      "type": "function"
    },
    {
      "constant": false,
      "inputs": [
        {
          "name": "proxy",
          "type": "address"
        }
      ],
      "name": "getProxyImplementation",
      "outputs": [
        {
          "name": "",
          "type": "address"
        }
      ],
      "payable": false,
      "stateMutability": "nonpayable",
      "type": "function"
    },
    {
      "constant": true,
      "inputs": [
        {
          "name": "proxy",
          "type": "address"
        }
      ],
      "name": "getProxyAdmin",
      "outputs": [
        {
          "name": "",
          "type": "address"
        }
      ],
      "payable": false,
      "stateMutability": "view",
      "type": "function"
    },
    {
      "constant": false,
      "inputs": [
        {
          "name": "proxy",
          "type": "address"
        },
        {
          "name": "newAdmin",
          "type": "address"
        }
      ],
      "name": "changeProxyAdmin",
      "outputs": [],
      "payable": false,
      "stateMutability": "nonpayable",
      "type": "function"
    },
    {
      "constant": false,
      "inputs": [
        {
          "name": "packageName",
          "type": "string"
        },
        {
          "name": "contractName",
          "type": "string"
        },
        {
          "name": "data",
          "type": "bytes"
        }
      ],
      "name": "create",
      "outputs": [
        {
          "name": "",
          "type": "address"
        }
      ],
      "payable": true,
      "stateMutability": "payable",
      "type": "function"
    },
    {
      "constant": false,
      "inputs": [
        {
          "name": "proxy",
          "type": "address"
        },
        {
          "name": "packageName",
          "type": "string"
        },
        {
          "name": "contractName",
          "type": "string"
        }
      ],
      "name": "upgrade",
      "outputs": [],
      "payable": false,
      "stateMutability": "nonpayable",
      "type": "function"
    },
    {
      "constant": false,
      "inputs": [
        {
          "name": "proxy",
          "type": "address"
        },
        {
          "name": "packageName",
          "type": "string"
        },
        {
          "name": "contractName",
          "type": "string"
        },
        {
          "name": "data",
          "type": "bytes"
        }
      ],
      "name": "upgradeAndCall",
      "outputs": [],
      "payable": true,
      "stateMutability": "payable",
      "type": "function"
    }
  ],
  "bytecode": "0x608060405234801561001057600080fd5b50336000806101000a81548173ffffffffffffffffffffffffffffffffffffffff021916908373ffffffffffffffffffffffffffffffffffffffff1602179055506000809054906101000a900473ffffffffffffffffffffffffffffffffffffffff1673ffffffffffffffffffffffffffffffffffffffff16600073ffffffffffffffffffffffffffffffffffffffff167f8be0079c531659141344cd1fd0a4f28419497f9722a3daafe3b4186f6b6457e060405160405180910390a3613090806100dc6000396000f3fe6080604052600436106200011b576000357c01000000000000000000000000000000000000000000000000000000009004806382f7518211620000b4578063ad358d99116200007e578063ad358d991462000bb6578063e7e4fc841462000c85578063f2fde38b1462000e9a578063f3b7dead1462000eef576200011b565b806382f75182146200086157806387c6048314620009ea5780638da5cb5b1462000b2a5780638f32d59b1462000b84576200011b565b806350cadc8511620000f657806350cadc851462000593578063715018a614620006a257806371eb64cc14620006bc5780637eff275e14620007ec576200011b565b8063204e1c7a146200012057806327a0d66914620001b55780632f237e82146200035e575b600080fd5b3480156200012d57600080fd5b5062000173600480360360208110156200014657600080fd5b81019080803573ffffffffffffffffffffffffffffffffffffffff16906020019092919050505062000f84565b604051808273ffffffffffffffffffffffffffffffffffffffff1673ffffffffffffffffffffffffffffffffffffffff16815260200191505060405180910390f35b348015620001c257600080fd5b506200031c60048036036040811015620001db57600080fd5b8101908080359060200190640100000000811115620001f957600080fd5b8201836020820111156200020c57600080fd5b803590602001918460018302840111640100000000831117156200022f57600080fd5b91908080601f016020809104026020016040519081016040528093929190818152602001838380828437600081840152601f19601f820116905080830192505050505050509192919290803590602001906401000000008111156200029357600080fd5b820183602082011115620002a657600080fd5b80359060200191846001830284011164010000000083111715620002c957600080fd5b91908080601f016020809104026020016040519081016040528093929190818152602001838380828437600081840152601f19601f8201169050808301925050505050505091929192905050506200102f565b604051808273ffffffffffffffffffffffffffffffffffffffff1673ffffffffffffffffffffffffffffffffffffffff16815260200191505060405180910390f35b62000551600480360360608110156200037657600080fd5b81019080803590602001906401000000008111156200039457600080fd5b820183602082011115620003a757600080fd5b80359060200191846001830284011164010000000083111715620003ca57600080fd5b91908080601f016020809104026020016040519081016040528093929190818152602001838380828437600081840152601f19601f820116905080830192505050505050509192919290803590602001906401000000008111156200042e57600080fd5b8201836020820111156200044157600080fd5b803590602001918460018302840111640100000000831117156200046457600080fd5b91908080601f016020809104026020016040519081016040528093929190818152602001838380828437600081840152601f19601f82011690508083019250505050505050919291929080359060200190640100000000811115620004c857600080fd5b820183602082011115620004db57600080fd5b80359060200191846001830284011164010000000083111715620004fe57600080fd5b91908080601f016020809104026020016040519081016040528093929190818152602001838380828437600081840152601f19601f8201169050808301925050505050505091929192905050506200119d565b604051808273ffffffffffffffffffffffffffffffffffffffff1673ffffffffffffffffffffffffffffffffffffffff16815260200191505060405180910390f35b348015620005a057600080fd5b506200066060048036036020811015620005b957600080fd5b8101908080359060200190640100000000811115620005d757600080fd5b820183602082011115620005ea57600080fd5b803590602001918460018302840111640100000000831117156200060d57600080fd5b91908080601f016020809104026020016040519081016040528093929190818152602001838380828437600081840152601f19601f820116905080830192505050505050509192919290505050620012f5565b604051808273ffffffffffffffffffffffffffffffffffffffff1673ffffffffffffffffffffffffffffffffffffffff16815260200191505060405180910390f35b348015620006af57600080fd5b50620006ba620014fd565b005b348015620006c957600080fd5b50620007ea600480360360a0811015620006e257600080fd5b81019080803590602001906401000000008111156200070057600080fd5b8201836020820111156200071357600080fd5b803590602001918460018302840111640100000000831117156200073657600080fd5b91908080601f016020809104026020016040519081016040528093929190818152602001838380828437600081840152601f19601f820116905080830192505050505050509192919290803573ffffffffffffffffffffffffffffffffffffffff16906020019092919080606001906003806020026040519081016040528092919082600360200280828437600081840152601f19601f8201169050808301925050505050509192919290505050620015d2565b005b348015620007f957600080fd5b506200085f600480360360408110156200081257600080fd5b81019080803573ffffffffffffffffffffffffffffffffffffffff169060200190929190803573ffffffffffffffffffffffffffffffffffffffff1690602001909291905050506200191c565b005b3480156200086e57600080fd5b50620009e8600480360360608110156200088757600080fd5b81019080803573ffffffffffffffffffffffffffffffffffffffff16906020019092919080359060200190640100000000811115620008c557600080fd5b820183602082011115620008d857600080fd5b80359060200191846001830284011164010000000083111715620008fb57600080fd5b91908080601f016020809104026020016040519081016040528093929190818152602001838380828437600081840152601f19601f820116905080830192505050505050509192919290803590602001906401000000008111156200095f57600080fd5b8201836020820111156200097257600080fd5b803590602001918460018302840111640100000000831117156200099557600080fd5b91908080601f016020809104026020016040519081016040528093929190818152602001838380828437600081840152601f19601f820116905080830192505050505050509192919290505050620019eb565b005b348015620009f757600080fd5b5062000ab76004803603602081101562000a1057600080fd5b810190808035906020019064010000000081111562000a2e57600080fd5b82018360208201111562000a4157600080fd5b8035906020019184600183028401116401000000008311171562000a6457600080fd5b91908080601f016020809104026020016040519081016040528093929190818152602001838380828437600081840152601f19601f82011690508083019250505050505050919291929050505062001acc565b604051808373ffffffffffffffffffffffffffffffffffffffff1673ffffffffffffffffffffffffffffffffffffffff16815260200182600360200280838360005b8381101562000b1657808201518184015260208101905062000af9565b505050509050019250505060405180910390f35b34801562000b3757600080fd5b5062000b4262001bf1565b604051808273ffffffffffffffffffffffffffffffffffffffff1673ffffffffffffffffffffffffffffffffffffffff16815260200191505060405180910390f35b34801562000b9157600080fd5b5062000b9c62001c1a565b604051808215151515815260200191505060405180910390f35b34801562000bc357600080fd5b5062000c836004803603602081101562000bdc57600080fd5b810190808035906020019064010000000081111562000bfa57600080fd5b82018360208201111562000c0d57600080fd5b8035906020019184600183028401116401000000008311171562000c3057600080fd5b91908080601f016020809104026020016040519081016040528093929190818152602001838380828437600081840152601f19601f82011690508083019250505050505050919291929050505062001c71565b005b62000e986004803603608081101562000c9d57600080fd5b81019080803573ffffffffffffffffffffffffffffffffffffffff1690602001909291908035906020019064010000000081111562000cdb57600080fd5b82018360208201111562000cee57600080fd5b8035906020019184600183028401116401000000008311171562000d1157600080fd5b91908080601f016020809104026020016040519081016040528093929190818152602001838380828437600081840152601f19601f8201169050808301925050505050505091929192908035906020019064010000000081111562000d7557600080fd5b82018360208201111562000d8857600080fd5b8035906020019184600183028401116401000000008311171562000dab57600080fd5b91908080601f016020809104026020016040519081016040528093929190818152602001838380828437600081840152601f19601f8201169050808301925050505050505091929192908035906020019064010000000081111562000e0f57600080fd5b82018360208201111562000e2257600080fd5b8035906020019184600183028401116401000000008311171562000e4557600080fd5b91908080601f016020809104026020016040519081016040528093929190818152602001838380828437600081840152601f19601f82011690508083019250505050505050919291929050505062001fc9565b005b34801562000ea757600080fd5b5062000eed6004803603602081101562000ec057600080fd5b81019080803573ffffffffffffffffffffffffffffffffffffffff1690602001909291905050506200211c565b005b34801562000efc57600080fd5b5062000f426004803603602081101562000f1557600080fd5b81019080803573ffffffffffffffffffffffffffffffffffffffff16906020019092919050505062002140565b604051808273ffffffffffffffffffffffffffffffffffffffff1673ffffffffffffffffffffffffffffffffffffffff16815260200191505060405180910390f35b60008173ffffffffffffffffffffffffffffffffffffffff16635c60da1b6040518163ffffffff167c0100000000000000000000000000000000000000000000000000000000028152600401602060405180830381600087803b15801562000feb57600080fd5b505af115801562001000573d6000803e3d6000fd5b505050506040513d60208110156200101757600080fd5b81019080805190602001909291905050509050919050565b6000806200103d84620012f5565b9050600073ffffffffffffffffffffffffffffffffffffffff168173ffffffffffffffffffffffffffffffffffffffff1614156200108057600091505062001197565b8073ffffffffffffffffffffffffffffffffffffffff16636b683896846040518263ffffffff167c01000000000000000000000000000000000000000000000000000000000281526004018080602001828103825283818151815260200191508051906020019080838360005b838110156200110a578082015181840152602081019050620010ed565b50505050905090810190601f168015620011385780820380516001836020036101000a031916815260200191505b509250505060206040518083038186803b1580156200115657600080fd5b505afa1580156200116b573d6000803e3d6000fd5b505050506040513d60208110156200118257600080fd5b81019080805190602001909291905050509150505b92915050565b600080620011ac85856200102f565b90506000348285604051620011c190620022e4565b808373ffffffffffffffffffffffffffffffffffffffff1673ffffffffffffffffffffffffffffffffffffffff16815260200180602001828103825283818151815260200191508051906020019080838360005b838110156200123257808201518184015260208101905062001215565b50505050905090810190601f168015620012605780820380516001836020036101000a031916815260200191505b5093505050506040518091039082f08015801562001282573d6000803e3d6000fd5b50905090507efffc2da0b561cae30d9826d37709e9421c4725faebc226cbbb7ef5fc5e734981604051808273ffffffffffffffffffffffffffffffffffffffff1673ffffffffffffffffffffffffffffffffffffffff16815260200191505060405180910390a180925050509392505050565b6000806001836040518082805190602001908083835b6020831015156200133257805182526020820191506020810190506020830392506200130b565b6001836020036101000a03801982511681845116808217855250505050505090500191505090815260200160405180910390209050600073ffffffffffffffffffffffffffffffffffffffff168160000160009054906101000a900473ffffffffffffffffffffffffffffffffffffffff1673ffffffffffffffffffffffffffffffffffffffff161415620013cc576000915050620014f8565b8060000160009054906101000a900473ffffffffffffffffffffffffffffffffffffffff1673ffffffffffffffffffffffffffffffffffffffff16631df40eaa826001016040518263ffffffff167c010000000000000000000000000000000000000000000000000000000002815260040180826003801562001499576020028201916000905b82829054906101000a900467ffffffffffffffff1667ffffffffffffffff1681526020019060080190602082600701049283019260010382029150808411620014535790505b505091505060206040518083038186803b158015620014b757600080fd5b505afa158015620014cc573d6000803e3d6000fd5b505050506040513d6020811015620014e357600080fd5b81019080805190602001909291905050509150505b919050565b6200150762001c1a565b15156200151357600080fd5b600073ffffffffffffffffffffffffffffffffffffffff166000809054906101000a900473ffffffffffffffffffffffffffffffffffffffff1673ffffffffffffffffffffffffffffffffffffffff167f8be0079c531659141344cd1fd0a4f28419497f9722a3daafe3b4186f6b6457e060405160405180910390a360008060006101000a81548173ffffffffffffffffffffffffffffffffffffffff021916908373ffffffffffffffffffffffffffffffffffffffff160217905550565b620015dc62001c1a565b1515620015e857600080fd5b8173ffffffffffffffffffffffffffffffffffffffff166335ce4016826040518263ffffffff167c01000000000000000000000000000000000000000000000000000000000281526004018082600360200280838360005b838110156200165d57808201518184015260208101905062001640565b5050505090500191505060206040518083038186803b1580156200168057600080fd5b505afa15801562001695573d6000803e3d6000fd5b505050506040513d6020811015620016ac57600080fd5b8101908080519060200190929190505050151562001716576040517f08c379a000000000000000000000000000000000000000000000000000000000815260040180806020018281038252603d81526020018062003028603d913960400191505060405180910390fd5b60408051908101604052808373ffffffffffffffffffffffffffffffffffffffff168152602001828152506001846040518082805190602001908083835b6020831015156200177b578051825260208201915060208101905060208303925062001754565b6001836020036101000a038019825116818451168082178552505050505050905001915050908152602001604051809103902060008201518160000160006101000a81548173ffffffffffffffffffffffffffffffffffffffff021916908373ffffffffffffffffffffffffffffffffffffffff1602179055506020820151816001019060036200180e929190620022f2565b509050507f4ca1964bc3cd347906bc558f77fdd636486951cf12238150178be72a4fbb6fab83838360405180806020018473ffffffffffffffffffffffffffffffffffffffff1673ffffffffffffffffffffffffffffffffffffffff16815260200183600360200280838360005b83811015620018995780820151818401526020810190506200187c565b50505050905001828103825285818151815260200191508051906020019080838360005b83811015620018da578082015181840152602081019050620018bd565b50505050905090810190601f168015620019085780820380516001836020036101000a031916815260200191505b5094505050505060405180910390a1505050565b6200192662001c1a565b15156200193257600080fd5b8173ffffffffffffffffffffffffffffffffffffffff16638f283970826040518263ffffffff167c0100000000000000000000000000000000000000000000000000000000028152600401808273ffffffffffffffffffffffffffffffffffffffff1673ffffffffffffffffffffffffffffffffffffffff168152602001915050600060405180830381600087803b158015620019ce57600080fd5b505af1158015620019e3573d6000803e3d6000fd5b505050505050565b620019f562001c1a565b151562001a0157600080fd5b600062001a0f83836200102f565b90508373ffffffffffffffffffffffffffffffffffffffff16633659cfe6826040518263ffffffff167c0100000000000000000000000000000000000000000000000000000000028152600401808273ffffffffffffffffffffffffffffffffffffffff1673ffffffffffffffffffffffffffffffffffffffff168152602001915050600060405180830381600087803b15801562001aad57600080fd5b505af115801562001ac2573d6000803e3d6000fd5b5050505050505050565b600062001ad8620023a7565b60006001846040518082805190602001908083835b60208310151562001b14578051825260208201915060208101905060208303925062001aed565b6001836020036101000a038019825116818451168082178552505050505050905001915050908152602001604051809103902090508060000160009054906101000a900473ffffffffffffffffffffffffffffffffffffffff16816001018060038060200260405190810160405280929190826003801562001be0576020028201916000905b82829054906101000a900467ffffffffffffffff1667ffffffffffffffff168152602001906008019060208260070104928301926001038202915080841162001b9a5790505b505050505090509250925050915091565b60008060009054906101000a900473ffffffffffffffffffffffffffffffffffffffff16905090565b60008060009054906101000a900473ffffffffffffffffffffffffffffffffffffffff1673ffffffffffffffffffffffffffffffffffffffff163373ffffffffffffffffffffffffffffffffffffffff1614905090565b62001c7b62001c1a565b151562001c8757600080fd5b600073ffffffffffffffffffffffffffffffffffffffff166001826040518082805190602001908083835b60208310151562001cd9578051825260208201915060208101905060208303925062001cb2565b6001836020036101000a038019825116818451168082178552505050505050905001915050908152602001604051809103902060000160009054906101000a900473ffffffffffffffffffffffffffffffffffffffff1673ffffffffffffffffffffffffffffffffffffffff161415151562001dbd576040517f08c379a000000000000000000000000000000000000000000000000000000000815260040180806020018281038252601a8152602001807f5061636b61676520746f20756e736574206e6f7420666f756e6400000000000081525060200191505060405180910390fd5b6001816040518082805190602001908083835b60208310151562001df7578051825260208201915060208101905060208303925062001dd0565b6001836020036101000a0380198251168184511680821785525050505050509050019150509081526020016040518091039020600080820160006101000a81549073ffffffffffffffffffffffffffffffffffffffff021916905560018201600062001e649190620023ca565b50507f4ca1964bc3cd347906bc558f77fdd636486951cf12238150178be72a4fbb6fab816000606060405190810160405280600067ffffffffffffffff1667ffffffffffffffff168152602001600067ffffffffffffffff1667ffffffffffffffff168152602001600067ffffffffffffffff1667ffffffffffffffff1681525060405180806020018473ffffffffffffffffffffffffffffffffffffffff1673ffffffffffffffffffffffffffffffffffffffff16815260200183600360200280838360005b8381101562001f4857808201518184015260208101905062001f2b565b50505050905001828103825285818151815260200191508051906020019080838360005b8381101562001f8957808201518184015260208101905062001f6c565b50505050905090810190601f16801562001fb75780820380516001836020036101000a031916815260200191505b5094505050505060405180910390a150565b62001fd362001c1a565b151562001fdf57600080fd5b600062001fed84846200102f565b90508473ffffffffffffffffffffffffffffffffffffffff16634f1ef2863483856040518463ffffffff167c0100000000000000000000000000000000000000000000000000000000028152600401808373ffffffffffffffffffffffffffffffffffffffff1673ffffffffffffffffffffffffffffffffffffffff16815260200180602001828103825283818151815260200191508051906020019080838360005b83811015620020ad57808201518184015260208101905062002090565b50505050905090810190601f168015620020db5780820380516001836020036101000a031916815260200191505b5093505050506000604051808303818588803b158015620020fb57600080fd5b505af115801562002110573d6000803e3d6000fd5b50505050505050505050565b6200212662001c1a565b15156200213257600080fd5b6200213d81620021e9565b50565b60008173ffffffffffffffffffffffffffffffffffffffff1663f851a4406040518163ffffffff167c010000000000000000000000000000000000000000000000000000000002815260040160206040518083038186803b158015620021a557600080fd5b505afa158015620021ba573d6000803e3d6000fd5b505050506040513d6020811015620021d157600080fd5b81019080805190602001909291905050509050919050565b600073ffffffffffffffffffffffffffffffffffffffff168173ffffffffffffffffffffffffffffffffffffffff16141515156200222657600080fd5b8073ffffffffffffffffffffffffffffffffffffffff166000809054906101000a900473ffffffffffffffffffffffffffffffffffffffff1673ffffffffffffffffffffffffffffffffffffffff167f8be0079c531659141344cd1fd0a4f28419497f9722a3daafe3b4186f6b6457e060405160405180910390a3806000806101000a81548173ffffffffffffffffffffffffffffffffffffffff021916908373ffffffffffffffffffffffffffffffffffffffff16021790555050565b610c1c806200240c83390190565b8260038001600490048101928215620023945791602002820160005b838211156200235c57835183826101000a81548167ffffffffffffffff021916908367ffffffffffffffff16021790555092602001926008016020816007010492830192600103026200230e565b8015620023925782816101000a81549067ffffffffffffffff02191690556008016020816007010492830192600103026200235c565b505b509050620023a39190620023d1565b5090565b606060405190810160405280600390602082028038833980820191505090505090565b5060009055565b6200240891905b808211156200240457600081816101000a81549067ffffffffffffffff021916905550600101620023d8565b5090565b9056fe6080604052604051610c1c380380610c1c8339810180604052604081101561002657600080fd5b8101908080519060200190929190805164010000000081111561004857600080fd5b8281019050602081018481111561005e57600080fd5b815185600182028301116401000000008211171561007b57600080fd5b505092919050505081816040518080610bbe60239139602301905060405180910390207f7050c9e0f4ca769c69bd3a8ef740bc37934f8e2c036e5a723fd8ee048ed3f8c36001021415156100cb57fe5b6100e382610237640100000000026401000000009004565b6000815111156101b35760008273ffffffffffffffffffffffffffffffffffffffff16826040518082805190602001908083835b60208310151561013c5780518252602082019150602081019050602083039250610117565b6001836020036101000a038019825116818451168082178552505050505050905001915050600060405180830381855af49150503d806000811461019c576040519150601f19603f3d011682016040523d82523d6000602084013e6101a1565b606091505b505090508015156101b157600080fd5b505b505060405180807f6f72672e7a657070656c696e6f732e70726f78792e61646d696e000000000000815250601a01905060405180910390207f10d6a54a4754c8869d6886b5f5d7fbfa5b4522237ea5c60d11bc4e7a1ff9390b60010214151561021857fe5b610230336102d9640100000000026401000000009004565b505061031b565b61025381610308640100000000026107b2176401000000009004565b15156102aa576040517f08c379a000000000000000000000000000000000000000000000000000000000815260040180806020018281038252603b815260200180610be1603b913960400191505060405180910390fd5b60007f7050c9e0f4ca769c69bd3a8ef740bc37934f8e2c036e5a723fd8ee048ed3f8c360010290508181555050565b60007f10d6a54a4754c8869d6886b5f5d7fbfa5b4522237ea5c60d11bc4e7a1ff9390b60010290508181555050565b600080823b905060008111915050919050565b6108948061032a6000396000f3fe608060405260043610610067576000357c0100000000000000000000000000000000000000000000000000000000900480633659cfe6146100715780634f1ef286146100c25780635c60da1b1461015b5780638f283970146101b2578063f851a44014610203575b61006f61025a565b005b34801561007d57600080fd5b506100c06004803603602081101561009457600080fd5b81019080803573ffffffffffffffffffffffffffffffffffffffff169060200190929190505050610274565b005b610159600480360360408110156100d857600080fd5b81019080803573ffffffffffffffffffffffffffffffffffffffff1690602001909291908035906020019064010000000081111561011557600080fd5b82018360208201111561012757600080fd5b8035906020019184600183028401116401000000008311171561014957600080fd5b90919293919293905050506102c9565b005b34801561016757600080fd5b506101706103a1565b604051808273ffffffffffffffffffffffffffffffffffffffff1673ffffffffffffffffffffffffffffffffffffffff16815260200191505060405180910390f35b3480156101be57600080fd5b50610201600480360360208110156101d557600080fd5b81019080803573ffffffffffffffffffffffffffffffffffffffff1690602001909291905050506103f9565b005b34801561020f57600080fd5b50610218610574565b604051808273ffffffffffffffffffffffffffffffffffffffff1673ffffffffffffffffffffffffffffffffffffffff16815260200191505060405180910390f35b610262610583565b61027261026d61061b565b61064c565b565b61027c610672565b73ffffffffffffffffffffffffffffffffffffffff163373ffffffffffffffffffffffffffffffffffffffff1614156102bd576102b8816106a3565b6102c6565b6102c561025a565b5b50565b6102d1610672565b73ffffffffffffffffffffffffffffffffffffffff163373ffffffffffffffffffffffffffffffffffffffff1614156103935761030d836106a3565b60008373ffffffffffffffffffffffffffffffffffffffff168383604051808383808284378083019250505092505050600060405180830381855af49150503d8060008114610378576040519150601f19603f3d011682016040523d82523d6000602084013e61037d565b606091505b5050905080151561038d57600080fd5b5061039c565b61039b61025a565b5b505050565b60006103ab610672565b73ffffffffffffffffffffffffffffffffffffffff163373ffffffffffffffffffffffffffffffffffffffff1614156103ed576103e661061b565b90506103f6565b6103f561025a565b5b90565b610401610672565b73ffffffffffffffffffffffffffffffffffffffff163373ffffffffffffffffffffffffffffffffffffffff16141561056857600073ffffffffffffffffffffffffffffffffffffffff168173ffffffffffffffffffffffffffffffffffffffff16141515156104bc576040517f08c379a00000000000000000000000000000000000000000000000000000000081526004018080602001828103825260368152602001806107f86036913960400191505060405180910390fd5b7f7e644d79422f17c01e4894b5f4f588d331ebfa28653d42ae832dc59e38c9798f6104e5610672565b82604051808373ffffffffffffffffffffffffffffffffffffffff1673ffffffffffffffffffffffffffffffffffffffff1681526020018273ffffffffffffffffffffffffffffffffffffffff1673ffffffffffffffffffffffffffffffffffffffff1681526020019250505060405180910390a1610563816106f2565b610571565b61057061025a565b5b50565b600061057e610672565b905090565b61058b610672565b73ffffffffffffffffffffffffffffffffffffffff163373ffffffffffffffffffffffffffffffffffffffff1614151515610611576040517f08c379a00000000000000000000000000000000000000000000000000000000081526004018080602001828103825260328152602001806107c66032913960400191505060405180910390fd5b610619610721565b565b6000807f7050c9e0f4ca769c69bd3a8ef740bc37934f8e2c036e5a723fd8ee048ed3f8c36001029050805491505090565b3660008037600080366000845af43d6000803e806000811461066d573d6000f35b3d6000fd5b6000807f10d6a54a4754c8869d6886b5f5d7fbfa5b4522237ea5c60d11bc4e7a1ff9390b6001029050805491505090565b6106ac81610723565b8073ffffffffffffffffffffffffffffffffffffffff167fbc7cd75a20ee27fd9adebab32041f755214dbc6bffa90cc0225b39da2e5c2d3b60405160405180910390a250565b60007f10d6a54a4754c8869d6886b5f5d7fbfa5b4522237ea5c60d11bc4e7a1ff9390b60010290508181555050565b565b61072c816107b2565b1515610783576040517f08c379a000000000000000000000000000000000000000000000000000000000815260040180806020018281038252603b81526020018061082e603b913960400191505060405180910390fd5b60007f7050c9e0f4ca769c69bd3a8ef740bc37934f8e2c036e5a723fd8ee048ed3f8c360010290508181555050565b600080823b90506000811191505091905056fe43616e6e6f742063616c6c2066616c6c6261636b2066756e6374696f6e2066726f6d207468652070726f78792061646d696e43616e6e6f74206368616e6765207468652061646d696e206f6620612070726f787920746f20746865207a65726f206164647265737343616e6e6f742073657420612070726f787920696d706c656d656e746174696f6e20746f2061206e6f6e2d636f6e74726163742061646472657373a165627a7a72305820f5a396bf89914ea698a01e03601cdf2a8dc205239c3dfdd396e74a4589a4fff500296f72672e7a657070656c696e6f732e70726f78792e696d706c656d656e746174696f6e43616e6e6f742073657420612070726f787920696d706c656d656e746174696f6e20746f2061206e6f6e2d636f6e74726163742061646472657373546865207265717565737465642076657273696f6e206d757374206265207265676973746572656420696e2074686520676976656e207061636b616765a165627a7a723058206bec7af0d64a4ee747acc21d1f93dc5c829e6e0ebc3e8ad1503afbe6ca9315840029",
  "source": "pragma solidity ^0.5.0;\n\nimport \"../application/ImplementationProvider.sol\";\nimport \"../application/Package.sol\";\nimport { DeprecatedAdminUpgradeabilityProxy as AdminUpgradeabilityProxy } from \"../mocks/DeprecatedAdminUpgradeabilityProxy.sol\";\nimport \"../ownership/Ownable.sol\";\n\n/**\n * @title App\n * @dev Contract for upgradeable applications.\n * It handles the creation and upgrading of proxies.\n */\ncontract DeprecatedApp is ZOSLibOwnable {\n  /**\n   * @dev Emitted when a new proxy is created.\n   * @param proxy Address of the created proxy.\n   */\n  event ProxyCreated(address proxy);\n\n  /**\n   * @dev Emitted when a package dependency is changed in the application.\n   * @param providerName Name of the package that changed.\n   * @param package Address of the package associated to the name.\n   * @param version Version of the package in use.\n   */\n  event PackageChanged(string providerName, address package, uint64[3] version);\n\n  /**\n   * @dev Tracks a package in a particular version, used for retrieving implementations\n   */\n  struct ProviderInfo {\n    Package package;\n    uint64[3] version;\n  }\n\n  /**\n   * @dev Maps from dependency name to a tuple of package and version\n   */\n  mapping(string => ProviderInfo) internal providers;\n\n  /**\n   * @dev Constructor function.\n   */\n  constructor() public { }\n\n  /**\n   * @dev Returns the provider for a given package name, or zero if not set.\n   * @param packageName Name of the package to be retrieved.\n   * @return The provider.\n   */\n  function getProvider(string memory packageName) public view returns (ImplementationProvider provider) {\n    ProviderInfo storage info = providers[packageName];\n    if (address(info.package) == address(0)) return ImplementationProvider(0);\n    return ImplementationProvider(info.package.getContract(info.version));\n  }\n\n  /**\n   * @dev Returns information on a package given its name.\n   * @param packageName Name of the package to be queried.\n   * @return A tuple with the package address and pinned version given a package name, or zero if not set\n   */\n  function getPackage(string memory packageName) public view returns (Package, uint64[3] memory) {\n    ProviderInfo storage info = providers[packageName];\n    return (info.package, info.version);\n  }\n\n  /**\n   * @dev Sets a package in a specific version as a dependency for this application.\n   * Requires the version to be present in the package.\n   * @param packageName Name of the package to set or overwrite.\n   * @param package Address of the package to register.\n   * @param version Version of the package to use in this application.\n   */\n  function setPackage(string memory packageName, Package package, uint64[3] memory version) public onlyOwner {\n    require(package.hasVersion(version), \"The requested version must be registered in the given package\");\n    providers[packageName] = ProviderInfo(package, version);\n    emit PackageChanged(packageName, address(package), version);\n  }\n\n  /**\n   * @dev Unsets a package given its name.\n   * Reverts if the package is not set in the application.\n   * @param packageName Name of the package to remove.\n   */\n  function unsetPackage(string memory packageName) public onlyOwner {\n    require(address(providers[packageName].package) != address(0), \"Package to unset not found\");\n    delete providers[packageName];\n    emit PackageChanged(packageName, address(0), [uint64(0), uint64(0), uint64(0)]);\n  }\n\n  /**\n   * @dev Returns the implementation address for a given contract name, provided by the `ImplementationProvider`.\n   * @param packageName Name of the package where the contract is contained.\n   * @param contractName Name of the contract.\n   * @return Address where the contract is implemented.\n   */\n  function getImplementation(string memory packageName, string memory contractName) public view returns (address) {\n    ImplementationProvider provider = getProvider(packageName);\n    if (address(provider) == address(0)) return address(0);\n    return provider.getImplementation(contractName);\n  }\n\n  /**\n   * @dev Returns the current implementation of a proxy.\n   * This is needed because only the proxy admin can query it.\n   * @return The address of the current implementation of the proxy.\n   */\n  function getProxyImplementation(AdminUpgradeabilityProxy proxy) public returns (address) {\n    return proxy.implementation();\n  }\n\n  /**\n   * @dev Returns the admin of a proxy. Only the admin can query it.\n   * @return The address of the current admin of the proxy.\n   */\n  function getProxyAdmin(AdminUpgradeabilityProxy proxy) public view returns (address) {\n    return proxy.admin();\n  }\n\n  /**\n   * @dev Changes the admin of a proxy.\n   * @param proxy Proxy to change admin.\n   * @param newAdmin Address to transfer proxy administration to.\n   */\n  function changeProxyAdmin(AdminUpgradeabilityProxy proxy, address newAdmin) public onlyOwner {\n    proxy.changeAdmin(newAdmin);\n  }\n\n  /**\n   * @dev Creates a new proxy for the given contract and forwards a function call to it.\n   * This is useful to initialize the proxied contract.\n   * @param packageName Name of the package where the contract is contained.\n   * @param contractName Name of the contract.\n   * @param data Data to send as msg.data to the corresponding implementation to initialize the proxied contract.\n   * It should include the signature and the parameters of the function to be called, as described in\n   * https://solidity.readthedocs.io/en/v0.4.24/abi-spec.html#function-selector-and-argument-encoding.\n   * This parameter is optional, if no data is given the initialization call to proxied contract will be skipped.\n   * @return Address of the new proxy.\n   */\n   function create(string memory packageName, string memory contractName, bytes memory data) payable public returns (AdminUpgradeabilityProxy) {\n    address implementation = getImplementation(packageName, contractName);\n     AdminUpgradeabilityProxy proxy = (new AdminUpgradeabilityProxy).value(msg.value)(implementation, data);\n     emit ProxyCreated(address(proxy));\n     return proxy;\n  }\n\n  /**\n   * @dev Upgrades a proxy to the newest implementation of a contract.\n   * @param proxy Proxy to be upgraded.\n   * @param packageName Name of the package where the contract is contained.\n   * @param contractName Name of the contract.\n   */\n  function upgrade(AdminUpgradeabilityProxy proxy, string memory packageName, string memory contractName) public onlyOwner {\n    address implementation = getImplementation(packageName, contractName);\n    proxy.upgradeTo(implementation);\n  }\n\n  /**\n   * @dev Upgrades a proxy to the newest implementation of a contract and forwards a function call to it.\n   * This is useful to initialize the proxied contract.\n   * @param proxy Proxy to be upgraded.\n   * @param packageName Name of the package where the contract is contained.\n   * @param contractName Name of the contract.\n   * @param data Data to send as msg.data in the low level call.\n   * It should include the signature and the parameters of the function to be called, as described in\n   * https://solidity.readthedocs.io/en/v0.4.24/abi-spec.html#function-selector-and-argument-encoding.\n   */\n  function upgradeAndCall(AdminUpgradeabilityProxy proxy, string memory packageName, string memory contractName, bytes memory data) payable public onlyOwner {\n    address implementation = getImplementation(packageName, contractName);\n    proxy.upgradeToAndCall.value(msg.value)(implementation, data);\n  }\n}\n",
  "sourcePath": "/Volumes/hd2/Sandbox/zos/packages/lib/contracts/mocks/DeprecatedApp.sol",
  "compiler": {
    "name": "solc",
    "version": "0.5.3+commit.10d17f24.Emscripten.clang"
  },
  "schemaVersion": "3.0.2",
  "updatedAt": "2019-06-13T20:08:00.957Z",
  "devdoc": {
    "details": "Contract for upgradeable applications. It handles the creation and upgrading of proxies.",
    "methods": {
      "changeProxyAdmin(address,address)": {
        "details": "Changes the admin of a proxy.",
        "params": {
          "newAdmin": "Address to transfer proxy administration to.",
          "proxy": "Proxy to change admin."
        }
      },
      "constructor": {
        "details": "Constructor function."
      },
      "create(string,string,bytes)": {
        "details": "Creates a new proxy for the given contract and forwards a function call to it. This is useful to initialize the proxied contract.",
        "params": {
          "contractName": "Name of the contract.",
          "data": "Data to send as msg.data to the corresponding implementation to initialize the proxied contract. It should include the signature and the parameters of the function to be called, as described in https://solidity.readthedocs.io/en/v0.4.24/abi-spec.html#function-selector-and-argument-encoding. This parameter is optional, if no data is given the initialization call to proxied contract will be skipped.",
          "packageName": "Name of the package where the contract is contained."
        },
        "return": "Address of the new proxy."
      },
      "getImplementation(string,string)": {
        "details": "Returns the implementation address for a given contract name, provided by the `ImplementationProvider`.",
        "params": {
          "contractName": "Name of the contract.",
          "packageName": "Name of the package where the contract is contained."
        },
        "return": "Address where the contract is implemented."
      },
      "getPackage(string)": {
        "details": "Returns information on a package given its name.",
        "params": {
          "packageName": "Name of the package to be queried."
        },
        "return": "A tuple with the package address and pinned version given a package name, or zero if not set"
      },
      "getProvider(string)": {
        "details": "Returns the provider for a given package name, or zero if not set.",
        "params": {
          "packageName": "Name of the package to be retrieved."
        },
        "return": "The provider."
      },
      "getProxyAdmin(address)": {
        "details": "Returns the admin of a proxy. Only the admin can query it.",
        "return": "The address of the current admin of the proxy."
      },
      "getProxyImplementation(address)": {
        "details": "Returns the current implementation of a proxy. This is needed because only the proxy admin can query it.",
        "return": "The address of the current implementation of the proxy."
      },
      "isOwner()": {
        "return": "true if `msg.sender` is the owner of the contract."
      },
      "owner()": {
        "return": "the address of the owner."
      },
      "renounceOwnership()": {
        "details": "Allows the current owner to relinquish control of the contract."
      },
      "setPackage(string,address,uint64[3])": {
        "details": "Sets a package in a specific version as a dependency for this application. Requires the version to be present in the package.",
        "params": {
          "package": "Address of the package to register.",
          "packageName": "Name of the package to set or overwrite.",
          "version": "Version of the package to use in this application."
        }
      },
      "transferOwnership(address)": {
        "details": "Allows the current owner to transfer control of the contract to a newOwner.",
        "params": {
          "newOwner": "The address to transfer ownership to."
        }
      },
      "unsetPackage(string)": {
        "details": "Unsets a package given its name. Reverts if the package is not set in the application.",
        "params": {
          "packageName": "Name of the package to remove."
        }
      },
      "upgrade(address,string,string)": {
        "details": "Upgrades a proxy to the newest implementation of a contract.",
        "params": {
          "contractName": "Name of the contract.",
          "packageName": "Name of the package where the contract is contained.",
          "proxy": "Proxy to be upgraded."
        }
      },
      "upgradeAndCall(address,string,string,bytes)": {
        "details": "Upgrades a proxy to the newest implementation of a contract and forwards a function call to it. This is useful to initialize the proxied contract.",
        "params": {
          "contractName": "Name of the contract.",
          "data": "Data to send as msg.data in the low level call. It should include the signature and the parameters of the function to be called, as described in https://solidity.readthedocs.io/en/v0.4.24/abi-spec.html#function-selector-and-argument-encoding.",
          "packageName": "Name of the package where the contract is contained.",
          "proxy": "Proxy to be upgraded."
        }
      }
    },
    "title": "App"
  },
  "userdoc": {
    "methods": {
      "renounceOwnership()": {
        "notice": "Renouncing to ownership will leave the contract without an owner. It will not be possible to call the functions with the `onlyOwner` modifier anymore."
      }
    }
  }
}