{
  "contractName": "DummyImplementationV2",
  "abi": [
    {
      "constant": false,
      "inputs": [
        {
          "name": "_value",
          "type": "uint256"
        }
      ],
      "name": "initializePayable",
      "outputs": [],
      "payable": true,
      "stateMutability": "payable",
      "type": "function"
    },
    {
      "constant": true,
      "inputs": [],
      "name": "text",
      "outputs": [
        {
          "name": "",
          "type": "string"
        }
      ],
      "payable": false,
      "stateMutability": "view",
      "type": "function"
    },
    {
      "constant": false,
      "inputs": [],
      "name": "initializeNonPayable",
      "outputs": [],
      "payable": false,
      "stateMutability": "nonpayable",
      "type": "function"
    },
    {
      "constant": true,
      "inputs": [],
      "name": "reverts",
      "outputs": [],
      "payable": false,
      "stateMutability": "pure",
      "type": "function"
    },
    {
      "constant": true,
      "inputs": [],
      "name": "value",
      "outputs": [
        {
          "name": "",
          "type": "uint256"
        }
      ],
      "payable": false,
      "stateMutability": "view",
      "type": "function"
    },
    {
      "constant": false,
      "inputs": [
        {
          "name": "_value",
          "type": "uint256"
        }
      ],
      "name": "initializeNonPayable",
      "outputs": [],
      "payable": false,
      "stateMutability": "nonpayable",
      "type": "function"
    },
    {
      "constant": true,
      "inputs": [
        {
          "name": "",
          "type": "uint256"
        }
      ],
      "name": "values",
      "outputs": [
        {
          "name": "",
          "type": "uint256"
        }
      ],
      "payable": false,
      "stateMutability": "view",
      "type": "function"
    },
    {
      "constant": true,
      "inputs": [],
      "name": "get",
      "outputs": [
        {
          "name": "",
          "type": "bool"
        }
      ],
      "payable": false,
      "stateMutability": "pure",
      "type": "function"
    },
    {
      "constant": false,
      "inputs": [],
      "name": "initializePayable",
      "outputs": [],
      "payable": true,
      "stateMutability": "payable",
      "type": "function"
    },
    {
      "constant": false,
      "inputs": [
        {
          "name": "_value",
          "type": "uint256"
        },
        {
          "name": "_text",
          "type": "string"
        },
        {
          "name": "_values",
          "type": "uint256[]"
        }
      ],
      "name": "initialize",
      "outputs": [],
      "payable": false,
      "stateMutability": "nonpayable",
      "type": "function"
    },
    {
      "constant": false,
      "inputs": [
        {
          "name": "newVal",
          "type": "uint256"
        }
      ],
      "name": "migrate",
      "outputs": [],
      "payable": true,
      "stateMutability": "payable",
      "type": "function"
    },
    {
      "constant": true,
      "inputs": [],
      "name": "version",
      "outputs": [
        {
          "name": "",
          "type": "string"
        }
      ],
      "payable": false,
      "stateMutability": "pure",
      "type": "function"
    }
  ],
  "bytecode": "0x608060405234801561001057600080fd5b5061076d806100206000396000f3fe6080604052600436106100c4576000357c01000000000000000000000000000000000000000000000000000000009004806354fd4d501161008157806354fd4d501461020e5780635ba8d2ad1461029e5780635e383d21146102d95780636d4ce63c146103285780639fba1f9a14610357578063d31f8b6b14610361576100c4565b806316eaa247146100c95780631f1bd692146100f7578063227367d5146101875780633bccbbc91461019e5780633fa4f245146101b5578063454b0608146101e0575b600080fd5b6100f5600480360360208110156100df57600080fd5b81019080803590602001909291905050506104c7565b005b34801561010357600080fd5b5061010c6104d1565b6040518080602001828103825283818151815260200191508051906020019080838360005b8381101561014c578082015181840152602081019050610131565b50505050905090810190601f1680156101795780820380516001836020036101000a031916815260200191505b509250505060405180910390f35b34801561019357600080fd5b5061019c61056f565b005b3480156101aa57600080fd5b506101b3610579565b005b3480156101c157600080fd5b506101ca610588565b6040518082815260200191505060405180910390f35b61020c600480360360208110156101f657600080fd5b810190808035906020019092919050505061058e565b005b34801561021a57600080fd5b50610223610598565b6040518080602001828103825283818151815260200191508051906020019080838360005b83811015610263578082015181840152602081019050610248565b50505050905090810190601f1680156102905780820380516001836020036101000a031916815260200191505b509250505060405180910390f35b3480156102aa57600080fd5b506102d7600480360360208110156102c157600080fd5b81019080803590602001909291905050506105d5565b005b3480156102e557600080fd5b50610312600480360360208110156102fc57600080fd5b81019080803590602001909291905050506105df565b6040518082815260200191505060405180910390f35b34801561033457600080fd5b5061033d610602565b604051808215151515815260200191505060405180910390f35b61035f61060b565b005b34801561036d57600080fd5b506104c56004803603606081101561038457600080fd5b8101908080359060200190929190803590602001906401000000008111156103ab57600080fd5b8201836020820111156103bd57600080fd5b803590602001918460018302840111640100000000831117156103df57600080fd5b91908080601f016020809104026020016040519081016040528093929190818152602001838380828437600081840152601f19601f8201169050808301925050505050505091929192908035906020019064010000000081111561044257600080fd5b82018360208201111561045457600080fd5b8035906020019184602083028401116401000000008311171561047657600080fd5b919080806020026020016040519081016040528093929190818152602001838360200280828437600081840152601f19601f820116905080830192505050505050509192919290505050610615565b005b8060008190555050565b60018054600181600116156101000203166002900480601f0160208091040260200160405190810160405280929190818152602001828054600181600116156101000203166002900480156105675780601f1061053c57610100808354040283529160200191610567565b820191906000526020600020905b81548152906001019060200180831161054a57829003601f168201915b505050505081565b600a600081905550565b6000151561058657600080fd5b565b60005481565b8060008190555050565b60606040805190810160405280600281526020017f5632000000000000000000000000000000000000000000000000000000000000815250905090565b8060008190555050565b6002818154811015156105ee57fe5b906000526020600020016000915090505481565b60006001905090565b6064600081905550565b82600081905550816001908051906020019061063292919061064f565b5080600290805190602001906106499291906106cf565b50505050565b828054600181600116156101000203166002900490600052602060002090601f016020900481019282601f1061069057805160ff19168380011785556106be565b828001600101855582156106be579182015b828111156106bd5782518255916020019190600101906106a2565b5b5090506106cb919061071c565b5090565b82805482825590600052602060002090810192821561070b579160200282015b8281111561070a5782518255916020019190600101906106ef565b5b509050610718919061071c565b5090565b61073e91905b8082111561073a576000816000905550600101610722565b5090565b9056fea165627a7a7230582018b25bb8622a3c46adbc5e61f4edf63cab44f32136f0b64c916fded3f6a2be960029",
  "source": "pragma solidity ^0.5.0;\n\ncontract Impl {\n  function version() public pure returns (string memory); \n}\n\ncontract DummyImplementation {\n  uint256 public value;\n  string public text;\n  uint256[] public values;\n\n  function initializeNonPayable() public {\n    value = 10;\n  }\n\n  function initializePayable() payable public {\n    value = 100;\n  }\n\n  function initializeNonPayable(uint256 _value) public {\n    value = _value;\n  }\n\n  function initializePayable(uint256 _value) payable public {\n    value = _value;\n  }\n\n  function initialize(uint256 _value, string memory _text, uint256[] memory _values) public {\n    value = _value;\n    text = _text;\n    values = _values;\n  }\n\n  function get() public pure returns (bool) {\n    return true;\n  }\n\n  function version() public pure returns (string memory) {\n    return \"V1\";\n  }\n\n  function reverts() public pure {\n    require(false);\n  }\n}\n\ncontract DummyImplementationV2 is DummyImplementation {\n  function migrate(uint256 newVal) payable public {\n    value = newVal;\n  }\n\n  function version() public pure returns (string memory) {\n    return \"V2\";\n  }\n}\n",
  "sourcePath": "/Volumes/hd2/Sandbox/zos/packages/lib/contracts/mocks/DummyImplementation.sol",
  "compiler": {
    "name": "solc",
    "version": "0.5.3+commit.10d17f24.Emscripten.clang"
  },
  "schemaVersion": "3.0.2",
  "updatedAt": "2019-06-13T20:08:00.959Z",
  "devdoc": {
    "methods": {}
  },
  "userdoc": {
    "methods": {}
  }
}