{
  "contractName": "DummyImplementation",
  "abi": [
    {
      "constant": true,
      "inputs": [],
      "name": "text",
      "outputs": [
        {
          "name": "",
          "type": "string"
        }
      ],
      "payable": false,
      "stateMutability": "view",
      "type": "function"
    },
    {
      "constant": true,
      "inputs": [],
      "name": "value",
      "outputs": [
        {
          "name": "",
          "type": "uint256"
        }
      ],
      "payable": false,
      "stateMutability": "view",
      "type": "function"
    },
    {
      "constant": true,
      "inputs": [
        {
          "name": "",
          "type": "uint256"
        }
      ],
      "name": "values",
      "outputs": [
        {
          "name": "",
          "type": "uint256"
        }
      ],
      "payable": false,
      "stateMutability": "view",
      "type": "function"
    },
    {
      "constant": false,
      "inputs": [],
      "name": "initializeNonPayable",
      "outputs": [],
      "payable": false,
      "stateMutability": "nonpayable",
      "type": "function"
    },
    {
      "constant": false,
      "inputs": [
        {
          "name": "_value",
          "type": "uint256"
        }
      ],
      "name": "initializeNonPayable",
      "outputs": [],
      "payable": false,
      "stateMutability": "nonpayable",
      "type": "function"
    },
    {
      "constant": false,
      "inputs": [
        {
          "name": "_value",
          "type": "uint256"
        }
      ],
      "name": "initializePayable",
      "outputs": [],
      "payable": true,
      "stateMutability": "payable",
      "type": "function"
    },
    {
      "constant": false,
      "inputs": [],
      "name": "initializePayable",
      "outputs": [],
      "payable": true,
      "stateMutability": "payable",
      "type": "function"
    },
    {
      "constant": false,
      "inputs": [
        {
          "name": "_value",
          "type": "uint256"
        },
        {
          "name": "_text",
          "type": "string"
        },
        {
          "name": "_values",
          "type": "uint256[]"
        }
      ],
      "name": "initialize",
      "outputs": [],
      "payable": false,
      "stateMutability": "nonpayable",
      "type": "function"
    },
    {
      "constant": true,
      "inputs": [],
      "name": "get",
      "outputs": [
        {
          "name": "",
          "type": "bool"
        }
      ],
      "payable": false,
      "stateMutability": "pure",
      "type": "function"
    },
    {
      "constant": true,
      "inputs": [],
      "name": "version",
      "outputs": [
        {
          "name": "",
          "type": "string"
        }
      ],
      "payable": false,
      "stateMutability": "pure",
      "type": "function"
    },
    {
      "constant": true,
      "inputs": [],
      "name": "reverts",
      "outputs": [],
      "payable": false,
      "stateMutability": "pure",
      "type": "function"
    }
  ],
  "bytecode": "0x608060405234801561001057600080fd5b5061072a806100206000396000f3fe6080604052600436106100b9576000357c01000000000000000000000000000000000000000000000000000000009004806354fd4d501161008157806354fd4d50146101d55780635ba8d2ad146102655780635e383d21146102a05780636d4ce63c146102ef5780639fba1f9a1461031e578063d31f8b6b14610328576100b9565b806316eaa247146100be5780631f1bd692146100ec578063227367d51461017c5780633bccbbc9146101935780633fa4f245146101aa575b600080fd5b6100ea600480360360208110156100d457600080fd5b810190808035906020019092919050505061048e565b005b3480156100f857600080fd5b50610101610498565b6040518080602001828103825283818151815260200191508051906020019080838360005b83811015610141578082015181840152602081019050610126565b50505050905090810190601f16801561016e5780820380516001836020036101000a031916815260200191505b509250505060405180910390f35b34801561018857600080fd5b50610191610536565b005b34801561019f57600080fd5b506101a8610540565b005b3480156101b657600080fd5b506101bf61054f565b6040518082815260200191505060405180910390f35b3480156101e157600080fd5b506101ea610555565b6040518080602001828103825283818151815260200191508051906020019080838360005b8381101561022a57808201518184015260208101905061020f565b50505050905090810190601f1680156102575780820380516001836020036101000a031916815260200191505b509250505060405180910390f35b34801561027157600080fd5b5061029e6004803603602081101561028857600080fd5b8101908080359060200190929190505050610592565b005b3480156102ac57600080fd5b506102d9600480360360208110156102c357600080fd5b810190808035906020019092919050505061059c565b6040518082815260200191505060405180910390f35b3480156102fb57600080fd5b506103046105bf565b604051808215151515815260200191505060405180910390f35b6103266105c8565b005b34801561033457600080fd5b5061048c6004803603606081101561034b57600080fd5b81019080803590602001909291908035906020019064010000000081111561037257600080fd5b82018360208201111561038457600080fd5b803590602001918460018302840111640100000000831117156103a657600080fd5b91908080601f016020809104026020016040519081016040528093929190818152602001838380828437600081840152601f19601f8201169050808301925050505050505091929192908035906020019064010000000081111561040957600080fd5b82018360208201111561041b57600080fd5b8035906020019184602083028401116401000000008311171561043d57600080fd5b919080806020026020016040519081016040528093929190818152602001838360200280828437600081840152601f19601f8201169050808301925050505050505091929192905050506105d2565b005b8060008190555050565b60018054600181600116156101000203166002900480601f01602080910402602001604051908101604052809291908181526020018280546001816001161561010002031660029004801561052e5780601f106105035761010080835404028352916020019161052e565b820191906000526020600020905b81548152906001019060200180831161051157829003601f168201915b505050505081565b600a600081905550565b6000151561054d57600080fd5b565b60005481565b60606040805190810160405280600281526020017f5631000000000000000000000000000000000000000000000000000000000000815250905090565b8060008190555050565b6002818154811015156105ab57fe5b906000526020600020016000915090505481565b60006001905090565b6064600081905550565b8260008190555081600190805190602001906105ef92919061060c565b50806002908051906020019061060692919061068c565b50505050565b828054600181600116156101000203166002900490600052602060002090601f016020900481019282601f1061064d57805160ff191683800117855561067b565b8280016001018555821561067b579182015b8281111561067a57825182559160200191906001019061065f565b5b50905061068891906106d9565b5090565b8280548282559060005260206000209081019282156106c8579160200282015b828111156106c75782518255916020019190600101906106ac565b5b5090506106d591906106d9565b5090565b6106fb91905b808211156106f75760008160009055506001016106df565b5090565b9056fea165627a7a72305820202dc6191f10910ffff4ceb01414bc868923c3407b0335710cb7329108f4bc110029",
  "source": "pragma solidity ^0.5.0;\n\ncontract Impl {\n  function version() public pure returns (string memory); \n}\n\ncontract DummyImplementation {\n  uint256 public value;\n  string public text;\n  uint256[] public values;\n\n  function initializeNonPayable() public {\n    value = 10;\n  }\n\n  function initializePayable() payable public {\n    value = 100;\n  }\n\n  function initializeNonPayable(uint256 _value) public {\n    value = _value;\n  }\n\n  function initializePayable(uint256 _value) payable public {\n    value = _value;\n  }\n\n  function initialize(uint256 _value, string memory _text, uint256[] memory _values) public {\n    value = _value;\n    text = _text;\n    values = _values;\n  }\n\n  function get() public pure returns (bool) {\n    return true;\n  }\n\n  function version() public pure returns (string memory) {\n    return \"V1\";\n  }\n\n  function reverts() public pure {\n    require(false);\n  }\n}\n\ncontract DummyImplementationV2 is DummyImplementation {\n  function migrate(uint256 newVal) payable public {\n    value = newVal;\n  }\n\n  function version() public pure returns (string memory) {\n    return \"V2\";\n  }\n}\n",
  "sourcePath": "/Volumes/hd2/Sandbox/zos/packages/lib/contracts/mocks/DummyImplementation.sol",
  "compiler": {
    "name": "solc",
    "version": "0.5.3+commit.10d17f24.Emscripten.clang"
  },
  "schemaVersion": "3.0.2",
  "updatedAt": "2019-06-13T20:08:00.958Z",
  "devdoc": {
    "methods": {}
  },
  "userdoc": {
    "methods": {}
  }
}