{
  "contractName": "GetFunctionChild",
  "abi": [
    {
      "constant": false,
      "inputs": [
        {
          "name": "_x",
          "type": "uint256"
        }
      ],
      "name": "another",
      "outputs": [],
      "payable": false,
      "stateMutability": "nonpayable",
      "type": "function"
    },
    {
      "constant": false,
      "inputs": [
        {
          "name": "_x",
          "type": "bytes"
        }
      ],
      "name": "initialize",
      "outputs": [],
      "payable": false,
      "stateMutability": "nonpayable",
      "type": "function"
    },
    {
      "constant": false,
      "inputs": [
        {
          "name": "_x",
          "type": "uint256"
        },
        {
          "name": "_y",
          "type": "uint256"
        }
      ],
      "name": "initialize",
      "outputs": [],
      "payable": false,
      "stateMutability": "nonpayable",
      "type": "function"
    },
    {
      "constant": false,
      "inputs": [
        {
          "name": "_x",
          "type": "string"
        }
      ],
      "name": "initialize",
      "outputs": [],
      "payable": false,
      "stateMutability": "nonpayable",
      "type": "function"
    },
    {
      "constant": false,
      "inputs": [
        {
          "name": "_x",
          "type": "uint256"
        }
      ],
      "name": "initialize",
      "outputs": [],
      "payable": false,
      "stateMutability": "nonpayable",
      "type": "function"
    }
  ],
  "bytecode": "0x608060405234801561001057600080fd5b506102e6806100206000396000f3fe608060405234801561001057600080fd5b5060043610610074576000357c010000000000000000000000000000000000000000000000000000000090048063439fab9114610079578063499af20114610134578063e4a3011614610162578063f62d18881461019a578063fe4b84df14610255575b600080fd5b6101326004803603602081101561008f57600080fd5b81019080803590602001906401000000008111156100ac57600080fd5b8201836020820111156100be57600080fd5b803590602001918460018302840111640100000000831117156100e057600080fd5b91908080601f016020809104026020016040519081016040528093929190818152602001838380828437600081840152601f19601f820116905080830192505050505050509192919290505050610283565b005b6101606004803603602081101561014a57600080fd5b810190808035906020019092919050505061028e565b005b6101986004803603604081101561017857600080fd5b810190808035906020019092919080359060200190929190505050610298565b005b610253600480360360208110156101b057600080fd5b81019080803590602001906401000000008111156101cd57600080fd5b8201836020820111156101df57600080fd5b8035906020019184600183028401116401000000008311171561020157600080fd5b91908080601f016020809104026020016040519081016040528093929190818152602001838380828437600081840152601f19601f8201169050808301925050505050505091929192905050506102a5565b005b6102816004803603602081101561026b57600080fd5b81019080803590602001909291905050506102b0565b005b805160008190555050565b8060008190555050565b8082016000819055505050565b805160008190555050565b806000819055505056fea165627a7a7230582025d2c3faa0aa42acb5dc0d7c6fa13eaa32530c5c1a3452e8a24ee5eabdd16c000029",
  "source": "pragma solidity ^0.5.0;\n\ncontract GetFunctionBase {\n  uint256 x;\n  \n  function initialize(uint256 _x) public {\n    x = _x;\n  }\n\n  function initialize(string memory _x) public {\n    x = bytes(_x).length;\n  }\n\n  function initialize(uint256 _x, uint256 _y) public {\n    x = _x + _y;\n  }\n\n  function another(uint256 _x) public {\n    x = _x;\n  }\n}\n\ncontract GetFunctionChild is GetFunctionBase {\n  function initialize(bytes memory _x) public {\n    x = _x.length;\n  }\n}\n\ncontract GetFunctionOtherChild is GetFunctionBase {\n  function initialize(bytes32 _x) public {\n    x = uint256(_x);\n  }\n}\n\ncontract GetFunctionGrandchild is GetFunctionChild, GetFunctionOtherChild { }\n\ncontract GetFunctionOtherGrandchild is GetFunctionOtherChild, GetFunctionChild { }",
  "sourcePath": "/Volumes/hd2/Sandbox/zos/packages/lib/contracts/mocks/GetFunctionMocks.sol",
  "compiler": {
    "name": "solc",
    "version": "0.5.3+commit.10d17f24.Emscripten.clang"
  },
  "schemaVersion": "3.0.2",
  "updatedAt": "2019-06-13T20:08:00.960Z",
  "devdoc": {
    "methods": {}
  },
  "userdoc": {
    "methods": {}
  }
}