{
  "contractName": "Implementation3",
  "abi": [
    {
      "constant": false,
      "inputs": [],
      "name": "initialize",
      "outputs": [],
      "payable": false,
      "stateMutability": "nonpayable",
      "type": "function"
    },
    {
      "constant": false,
      "inputs": [
        {
          "name": "_number",
          "type": "uint256"
        }
      ],
      "name": "setValue",
      "outputs": [],
      "payable": false,
      "stateMutability": "nonpayable",
      "type": "function"
    },
    {
      "constant": true,
      "inputs": [
        {
          "name": "_number",
          "type": "uint256"
        }
      ],
      "name": "getValue",
      "outputs": [
        {
          "name": "",
          "type": "uint256"
        }
      ],
      "payable": false,
      "stateMutability": "view",
      "type": "function"
    }
  ],
  "bytecode": "0x608060405234801561001057600080fd5b50610261806100206000396000f3fe608060405234801561001057600080fd5b506004361061005e576000357c0100000000000000000000000000000000000000000000000000000000900480630ff4c9161461006357806355241077146100a55780638129fc1c146100d3575b600080fd5b61008f6004803603602081101561007957600080fd5b81019080803590602001909291905050506100dd565b6040518082815260200191505060405180910390f35b6100d1600480360360208110156100bb57600080fd5b81019080803590602001909291905050506100eb565b005b6100db6100f5565b005b600081603354019050919050565b8060338190555050565b600060019054906101000a900460ff168061011457506101136101f6565b5b8061012b57506000809054906101000a900460ff16155b1515610182576040517f08c379a000000000000000000000000000000000000000000000000000000000815260040180806020018281038252602e815260200180610208602e913960400191505060405180910390fd5b60008060019054906101000a900460ff1615905080156101d2576001600060016101000a81548160ff02191690831515021790555060016000806101000a81548160ff0219169083151502179055505b80156101f35760008060016101000a81548160ff0219169083151502179055505b50565b600080303b9050600081149150509056fe436f6e747261637420696e7374616e63652068617320616c7265616479206265656e20696e697469616c697a6564a165627a7a723058208d9c69baa54e1b1a5018e5861773ee766c6cce865a852fa0edb1535c449ea4f60029",
  "source": "pragma solidity ^0.5.0;\n\nimport \"../Initializable.sol\";\n\ncontract Implementation1 is Initializable {\n  uint value;\n\n  function initialize() initializer public {\n  }\n\n  function setValue(uint _number) public {\n    value = _number;\n  }\n}\n\ncontract Implementation2 is Initializable {\n  uint value;\n\n  function initialize() initializer public {\n  }\n\n  function setValue(uint _number) public {\n    value = _number;\n  }\n\n  function getValue() public view returns (uint) {\n    return value;\n  }\n}\n\ncontract Implementation3 is Initializable {\n  uint value;\n\n  function initialize() initializer public {\n  }\n\n  function setValue(uint _number) public {\n    value = _number;\n  }\n\n  function getValue(uint _number) public view returns (uint) {\n    return value + _number;\n  }\n}\n\ncontract Implementation4 is Initializable {\n  uint value;\n\n  function initialize() initializer public {\n  }\n\n  function setValue(uint _number) public {\n    value = _number;\n  }\n\n  function getValue() public view returns (uint) {\n    return value;\n  }\n\n  function() external {\n    value = 1;\n  }\n}\n",
  "sourcePath": "/Volumes/hd2/Sandbox/zos/packages/lib/contracts/mocks/RegressionImplementation.sol",
  "compiler": {
    "name": "solc",
    "version": "0.5.3+commit.10d17f24.Emscripten.clang"
  },
  "schemaVersion": "3.0.2",
  "updatedAt": "2019-06-13T20:08:01.168Z",
  "devdoc": {
    "methods": {}
  },
  "userdoc": {
    "methods": {}
  }
}