{
  "contractName": "InitializableMock",
  "abi": [
    {
      "constant": true,
      "inputs": [],
      "name": "x",
      "outputs": [
        {
          "name": "",
          "type": "uint256"
        }
      ],
      "payable": false,
      "stateMutability": "view",
      "type": "function"
    },
    {
      "constant": true,
      "inputs": [],
      "name": "initializerRan",
      "outputs": [
        {
          "name": "",
          "type": "bool"
        }
      ],
      "payable": false,
      "stateMutability": "view",
      "type": "function"
    },
    {
      "constant": false,
      "inputs": [],
      "name": "initialize",
      "outputs": [],
      "payable": false,
      "stateMutability": "nonpayable",
      "type": "function"
    },
    {
      "constant": false,
      "inputs": [],
      "name": "initializeNested",
      "outputs": [],
      "payable": false,
      "stateMutability": "nonpayable",
      "type": "function"
    },
    {
      "constant": false,
      "inputs": [
        {
          "name": "_x",
          "type": "uint256"
        }
      ],
      "name": "initializeWithX",
      "outputs": [],
      "payable": true,
      "stateMutability": "payable",
      "type": "function"
    },
    {
      "constant": false,
      "inputs": [
        {
          "name": "_x",
          "type": "uint256"
        }
      ],
      "name": "nonInitializable",
      "outputs": [],
      "payable": true,
      "stateMutability": "payable",
      "type": "function"
    },
    {
      "constant": true,
      "inputs": [],
      "name": "fail",
      "outputs": [],
      "payable": false,
      "stateMutability": "pure",
      "type": "function"
    }
  ],
  "bytecode": "0x608060405234801561001057600080fd5b506105c0806100206000396000f3fe60806040526004361061008c576000357c010000000000000000000000000000000000000000000000000000000090048063a9cc47181161006b578063a9cc471814610101578063c3b8ef2a14610118578063cb3a528d14610147578063e955c9ec1461015e5761008c565b806218eaa8146100915780630c55699c146100bf5780638129fc1c146100ea575b600080fd5b6100bd600480360360208110156100a757600080fd5b810190808035906020019092919050505061018c565b005b3480156100cb57600080fd5b506100d4610295565b6040518082815260200191505060405180910390f35b3480156100f657600080fd5b506100ff61029b565b005b34801561010d57600080fd5b506101166103b7565b005b34801561012457600080fd5b5061012d61042f565b604051808215151515815260200191505060405180910390f35b34801561015357600080fd5b5061015c610442565b005b61018a6004803603602081101561017457600080fd5b810190808035906020019092919050505061054b565b005b600060019054906101000a900460ff16806101ab57506101aa610555565b5b806101c257506000809054906101000a900460ff16155b1515610219576040517f08c379a000000000000000000000000000000000000000000000000000000000815260040180806020018281038252602e815260200180610567602e913960400191505060405180910390fd5b60008060019054906101000a900460ff161590508015610269576001600060016101000a81548160ff02191690831515021790555060016000806101000a81548160ff0219169083151502179055505b8160348190555080156102915760008060016101000a81548160ff0219169083151502179055505b5050565b60345481565b600060019054906101000a900460ff16806102ba57506102b9610555565b5b806102d157506000809054906101000a900460ff16155b1515610328576040517f08c379a000000000000000000000000000000000000000000000000000000000815260040180806020018281038252602e815260200180610567602e913960400191505060405180910390fd5b60008060019054906101000a900460ff161590508015610378576001600060016101000a81548160ff02191690831515021790555060016000806101000a81548160ff0219169083151502179055505b6001603360006101000a81548160ff02191690831515021790555080156103b45760008060016101000a81548160ff0219169083151502179055505b50565b6000151561042d576040517f08c379a00000000000000000000000000000000000000000000000000000000081526004018080602001828103825260208152602001807f496e697469616c697a61626c654d6f636b20666f72636564206661696c75726581525060200191505060405180910390fd5b565b603360009054906101000a900460ff1681565b600060019054906101000a900460ff16806104615750610460610555565b5b8061047857506000809054906101000a900460ff16155b15156104cf576040517f08c379a000000000000000000000000000000000000000000000000000000000815260040180806020018281038252602e815260200180610567602e913960400191505060405180910390fd5b60008060019054906101000a900460ff16159050801561051f576001600060016101000a81548160ff02191690831515021790555060016000806101000a81548160ff0219169083151502179055505b61052761029b565b80156105485760008060016101000a81548160ff0219169083151502179055505b50565b8060348190555050565b600080303b9050600081149150509056fe436f6e747261637420696e7374616e63652068617320616c7265616479206265656e20696e697469616c697a6564a165627a7a72305820b8fbcefcec33578a0155ec043a1cdffb0b4444add5676c8fa8fdb493a22491ae0029",
  "source": "pragma solidity ^0.5.0;\n\nimport \"../Initializable.sol\";\n\n/**\n * @title InitializableMock\n * @dev This contract is a mock to test initializable functionality\n */\ncontract InitializableMock is Initializable {\n\n  bool public initializerRan;\n  uint256 public x;\n\n  function initialize() public initializer {\n    initializerRan = true;\n  }\n\n  function initializeNested() public initializer {\n    initialize();\n  }\n\n  function initializeWithX(uint256 _x) public payable initializer {\n    x = _x;\n  }\n\n  function nonInitializable(uint256 _x) public payable {\n    x = _x;\n  }\n\n  function fail() public pure {\n    require(false, \"InitializableMock forced failure\");\n  }\n\n  function secret() private pure returns (string memory) {\n    return 'Im secret';\n  }\n\n}\n",
  "sourcePath": "/Volumes/hd2/Sandbox/zos/packages/lib/contracts/mocks/InitializableMock.sol",
  "compiler": {
    "name": "solc",
    "version": "0.5.3+commit.10d17f24.Emscripten.clang"
  },
  "schemaVersion": "3.0.2",
  "updatedAt": "2019-06-13T20:08:00.961Z",
  "devdoc": {
    "details": "This contract is a mock to test initializable functionality",
    "methods": {},
    "title": "InitializableMock"
  },
  "userdoc": {
    "methods": {}
  }
}