{
  "contractName": "MigratableMockV3",
  "abi": [
    {
      "constant": true,
      "inputs": [],
      "name": "x",
      "outputs": [
        {
          "name": "",
          "type": "uint256"
        }
      ],
      "payable": false,
      "stateMutability": "view",
      "type": "function"
    },
    {
      "constant": true,
      "inputs": [],
      "name": "y",
      "outputs": [
        {
          "name": "",
          "type": "uint256"
        }
      ],
      "payable": false,
      "stateMutability": "view",
      "type": "function"
    },
    {
      "constant": false,
      "inputs": [
        {
          "name": "value",
          "type": "uint256"
        }
      ],
      "name": "initialize",
      "outputs": [],
      "payable": true,
      "stateMutability": "payable",
      "type": "function"
    },
    {
      "constant": false,
      "inputs": [
        {
          "name": "value",
          "type": "uint256"
        },
        {
          "name": "anotherValue",
          "type": "uint256"
        }
      ],
      "name": "migrate",
      "outputs": [],
      "payable": true,
      "stateMutability": "payable",
      "type": "function"
    },
    {
      "constant": false,
      "inputs": [],
      "name": "migrate",
      "outputs": [],
      "payable": true,
      "stateMutability": "payable",
      "type": "function"
    }
  ],
  "bytecode": "0x608060405234801561001057600080fd5b5061034c806100206000396000f3fe608060405260043610610067576000357c0100000000000000000000000000000000000000000000000000000000900480630c55699c1461006c5780633e54bacb146100975780638fd3ab80146100cf578063a56dfe4a146100d9578063fe4b84df14610104575b600080fd5b34801561007857600080fd5b50610081610132565b6040518082815260200191505060405180910390f35b6100cd600480360360408110156100ad57600080fd5b810190808035906020019092919080359060200190929190505050610138565b005b6100d7610181565b005b3480156100e557600080fd5b506100ee6101d2565b6040518082815260200191505060405180910390f35b6101306004803603602081101561011a57600080fd5b81019080803590602001909291905050506101d8565b005b60335481565b603460009054906101000a900460ff1615151561015457600080fd5b81603381905550806035819055506001603460006101000a81548160ff0219169083151502179055505050565b603660009054906101000a900460ff1615151561019d57600080fd5b60006033549050603554603381905550806035819055506001603660006101000a81548160ff02191690831515021790555050565b60355481565b600060019054906101000a900460ff16806101f757506101f66102e1565b5b8061020e57506000809054906101000a900460ff16155b1515610265576040517f08c379a000000000000000000000000000000000000000000000000000000000815260040180806020018281038252602e8152602001806102f3602e913960400191505060405180910390fd5b60008060019054906101000a900460ff1615905080156102b5576001600060016101000a81548160ff02191690831515021790555060016000806101000a81548160ff0219169083151502179055505b8160338190555080156102dd5760008060016101000a81548160ff0219169083151502179055505b5050565b600080303b9050600081149150509056fe436f6e747261637420696e7374616e63652068617320616c7265616479206265656e20696e697469616c697a6564a165627a7a7230582021ea9ff731a9b0f5e489f7a2bb1bf8840e9351fbdb78e4c87569e27a0cfff34d0029",
  "source": "pragma solidity ^0.5.0;\n\nimport '../Initializable.sol';\n\n/**\n * @title MigratableMockV1\n * @dev This contract is a mock to test initializable functionality through migrations\n */\ncontract MigratableMockV1 is Initializable {\n  uint256 public x;\n\n  function initialize(uint256 value) initializer public payable {\n    x = value;\n  }\n}\n\n/**\n * @title MigratableMockV2\n * @dev This contract is a mock to test migratable functionality with params\n */\ncontract MigratableMockV2 is MigratableMockV1 {\n  bool migratedV2;\n  uint256 public y;\n\n  function migrate(uint256 value, uint256 anotherValue) public payable {\n    require(!migratedV2);\n    x = value;\n    y = anotherValue;\n    migratedV2 = true;\n  }\n}\n\n/**\n * @title MigratableMockV3\n * @dev This contract is a mock to test migratable functionality without params\n */\ncontract MigratableMockV3 is MigratableMockV2 {\n  bool migratedV3;\n\n  function migrate() public payable {\n    require(!migratedV3);\n    uint256 oldX = x;\n    x = y;\n    y = oldX;\n    migratedV3 = true;\n  }\n}\n",
  "sourcePath": "/Volumes/hd2/Sandbox/zos/packages/lib/contracts/mocks/SingleInheritanceInitializableMocks.sol",
  "compiler": {
    "name": "solc",
    "version": "0.5.3+commit.10d17f24.Emscripten.clang"
  },
  "schemaVersion": "3.0.2",
  "updatedAt": "2019-06-13T20:08:01.169Z",
  "devdoc": {
    "details": "This contract is a mock to test migratable functionality without params",
    "methods": {},
    "title": "MigratableMockV3"
  },
  "userdoc": {
    "methods": {}
  }
}