{
  "contractName": "MigratableMockV1",
  "abi": [
    {
      "constant": true,
      "inputs": [],
      "name": "x",
      "outputs": [
        {
          "name": "",
          "type": "uint256"
        }
      ],
      "payable": false,
      "stateMutability": "view",
      "type": "function"
    },
    {
      "constant": false,
      "inputs": [
        {
          "name": "value",
          "type": "uint256"
        }
      ],
      "name": "initialize",
      "outputs": [],
      "payable": true,
      "stateMutability": "payable",
      "type": "function"
    }
  ],
  "bytecode": "0x608060405234801561001057600080fd5b5061021e806100206000396000f3fe608060405260043610610046576000357c0100000000000000000000000000000000000000000000000000000000900480630c55699c1461004b578063fe4b84df14610076575b600080fd5b34801561005757600080fd5b506100606100a4565b6040518082815260200191505060405180910390f35b6100a26004803603602081101561008c57600080fd5b81019080803590602001909291905050506100aa565b005b60335481565b600060019054906101000a900460ff16806100c957506100c86101b3565b5b806100e057506000809054906101000a900460ff16155b1515610137576040517f08c379a000000000000000000000000000000000000000000000000000000000815260040180806020018281038252602e8152602001806101c5602e913960400191505060405180910390fd5b60008060019054906101000a900460ff161590508015610187576001600060016101000a81548160ff02191690831515021790555060016000806101000a81548160ff0219169083151502179055505b8160338190555080156101af5760008060016101000a81548160ff0219169083151502179055505b5050565b600080303b9050600081149150509056fe436f6e747261637420696e7374616e63652068617320616c7265616479206265656e20696e697469616c697a6564a165627a7a72305820e759a7de726362301d190c07e05edbdedf07a569f2f30622d36c0c93b6a751e20029",
  "source": "pragma solidity ^0.5.0;\n\nimport '../Initializable.sol';\n\n/**\n * @title MigratableMockV1\n * @dev This contract is a mock to test initializable functionality through migrations\n */\ncontract MigratableMockV1 is Initializable {\n  uint256 public x;\n\n  function initialize(uint256 value) initializer public payable {\n    x = value;\n  }\n}\n\n/**\n * @title MigratableMockV2\n * @dev This contract is a mock to test migratable functionality with params\n */\ncontract MigratableMockV2 is MigratableMockV1 {\n  bool migratedV2;\n  uint256 public y;\n\n  function migrate(uint256 value, uint256 anotherValue) public payable {\n    require(!migratedV2);\n    x = value;\n    y = anotherValue;\n    migratedV2 = true;\n  }\n}\n\n/**\n * @title MigratableMockV3\n * @dev This contract is a mock to test migratable functionality without params\n */\ncontract MigratableMockV3 is MigratableMockV2 {\n  bool migratedV3;\n\n  function migrate() public payable {\n    require(!migratedV3);\n    uint256 oldX = x;\n    x = y;\n    y = oldX;\n    migratedV3 = true;\n  }\n}\n",
  "sourcePath": "/Volumes/hd2/Sandbox/zos/packages/lib/contracts/mocks/SingleInheritanceInitializableMocks.sol",
  "compiler": {
    "name": "solc",
    "version": "0.5.3+commit.10d17f24.Emscripten.clang"
  },
  "schemaVersion": "3.0.2",
  "updatedAt": "2019-06-13T20:08:01.169Z",
  "devdoc": {
    "details": "This contract is a mock to test initializable functionality through migrations",
    "methods": {},
    "title": "MigratableMockV1"
  },
  "userdoc": {
    "methods": {}
  }
}