{
  "contractName": "SampleGramps",
  "abi": [
    {
      "constant": true,
      "inputs": [],
      "name": "isHuman",
      "outputs": [
        {
          "name": "",
          "type": "bool"
        }
      ],
      "payable": false,
      "stateMutability": "view",
      "type": "function"
    },
    {
      "constant": true,
      "inputs": [],
      "name": "gramps",
      "outputs": [
        {
          "name": "",
          "type": "uint256"
        }
      ],
      "payable": false,
      "stateMutability": "view",
      "type": "function"
    },
    {
      "constant": false,
      "inputs": [],
      "name": "initialize",
      "outputs": [],
      "payable": false,
      "stateMutability": "nonpayable",
      "type": "function"
    },
    {
      "constant": false,
      "inputs": [
        {
          "name": "value",
          "type": "uint256"
        }
      ],
      "name": "initialize",
      "outputs": [],
      "payable": false,
      "stateMutability": "nonpayable",
      "type": "function"
    }
  ],
  "bytecode": "0x608060405234801561001057600080fd5b50610397806100206000396000f3fe608060405234801561001057600080fd5b5060043610610069576000357c0100000000000000000000000000000000000000000000000000000000900480634a6c9db61461006e5780638129fc1c14610090578063fa39851f1461009a578063fe4b84df146100b8575b600080fd5b6100766100e6565b604051808215151515815260200191505060405180910390f35b6100986100f9565b005b6100a2610215565b6040518082815260200191505060405180910390f35b6100e4600480360360208110156100ce57600080fd5b810190808035906020019092919050505061021b565b005b603360009054906101000a900460ff1681565b600060019054906101000a900460ff1680610118575061011761032c565b5b8061012f57506000809054906101000a900460ff16155b1515610186576040517f08c379a000000000000000000000000000000000000000000000000000000000815260040180806020018281038252602e81526020018061033e602e913960400191505060405180910390fd5b60008060019054906101000a900460ff1615905080156101d6576001600060016101000a81548160ff02191690831515021790555060016000806101000a81548160ff0219169083151502179055505b6001603360006101000a81548160ff02191690831515021790555080156102125760008060016101000a81548160ff0219169083151502179055505b50565b60345481565b600060019054906101000a900460ff168061023a575061023961032c565b5b8061025157506000809054906101000a900460ff16155b15156102a8576040517f08c379a000000000000000000000000000000000000000000000000000000000815260040180806020018281038252602e81526020018061033e602e913960400191505060405180910390fd5b60008060019054906101000a900460ff1615905080156102f8576001600060016101000a81548160ff02191690831515021790555060016000806101000a81548160ff0219169083151502179055505b6103006100f9565b8160348190555080156103285760008060016101000a81548160ff0219169083151502179055505b5050565b600080303b9050600081149150509056fe436f6e747261637420696e7374616e63652068617320616c7265616479206265656e20696e697469616c697a6564a165627a7a723058204d3d26a9b502b0737fd1306672f65b7c8c600bbd2268c883ddbcfdc23bd8261d0029",
  "source": "pragma solidity ^0.5.0;\n\nimport '../Initializable.sol';\n\n// Sample contracts showing upgradeability with multiple inheritance.\n// Child contract inherits from Father and Mother contracts, and Father extends from Gramps.\n// \n//         Human\n//       /       \\\n//      |       Gramps\n//      |         |\n//    Mother    Father\n//      |         |\n//      -- Child --\n\n/**\n * Sample base intializable contract that is a human\n */\ncontract SampleHuman is Initializable {\n  bool public isHuman;\n\n  function initialize() initializer public {\n    isHuman = true;\n  }\n}\n\n/**\n * Sample base intializable contract that defines a field mother\n */\ncontract SampleMother is Initializable, SampleHuman {\n  uint256 public mother;\n\n  function initialize(uint256 value) initializer public {\n    SampleHuman.initialize();\n    mother = value;\n  }\n}\n\n/**\n * Sample base intializable contract that defines a field gramps\n */\ncontract SampleGramps is Initializable, SampleHuman {\n  uint256 public gramps;\n\n  function initialize(uint256 value) initializer public {\n    SampleHuman.initialize();\n    gramps = value;\n  }\n}\n\n/**\n * Sample base intializable contract that defines a field father and extends from gramps\n */\ncontract SampleFather is Initializable, SampleGramps {\n  uint256 public father;\n\n  function initialize(uint256 _gramps, uint256 _father) initializer public {\n    SampleGramps.initialize(_gramps);\n    father = _father;\n  }\n}\n\n/**\n * Child extends from mother, father (gramps)\n */\ncontract SampleChild is Initializable, SampleMother, SampleFather {\n  uint256 public child;\n\n  function initialize(uint256 _mother, uint256 _gramps, uint256 _father, uint256 _child) initializer public {\n    SampleMother.initialize(_mother);\n    SampleFather.initialize(_gramps, _father);\n    child = _child;\n  }\n}\n",
  "sourcePath": "/Volumes/hd2/Sandbox/zos/packages/lib/contracts/mocks/MultipleInheritanceInitializableMocks.sol",
  "compiler": {
    "name": "solc",
    "version": "0.5.3+commit.10d17f24.Emscripten.clang"
  },
  "schemaVersion": "3.0.2",
  "updatedAt": "2019-06-13T20:08:01.166Z",
  "devdoc": {
    "methods": {}
  },
  "userdoc": {
    "methods": {},
    "notice": "Sample base intializable contract that defines a field gramps"
  }
}