{
  "contractName": "StorageMockWithContracts",
  "abi": [
    {
      "constant": true,
      "inputs": [],
      "name": "my_contract",
      "outputs": [
        {
          "name": "",
          "type": "address"
        }
      ],
      "payable": false,
      "stateMutability": "view",
      "type": "function"
    }
  ],
  "bytecode": "0x608060405234801561001057600080fd5b5060e38061001f6000396000f3fe6080604052348015600f57600080fd5b50600436106045576000357c010000000000000000000000000000000000000000000000000000000090048063baba442e14604a575b600080fd5b60506092565b604051808273ffffffffffffffffffffffffffffffffffffffff1673ffffffffffffffffffffffffffffffffffffffff16815260200191505060405180910390f35b6000809054906101000a900473ffffffffffffffffffffffffffffffffffffffff168156fea165627a7a723058200ad9cabc5ce0e5469b996bc9864313816ae3f7470d745108ecdb22be39f071e20029",
  "source": "pragma solidity ^0.5.0;\n\n// Added just for having a circular reference\nimport \"./StorageMocks3.sol\";\n\ncontract SimpleStorageMock {\n  uint256 public my_public_uint256;\n  string internal my_internal_string;\n  uint8 private my_private_uint8;\n  int8 private my_private_uint16;\n  bool private my_private_bool;\n  uint private my_private_uint;\n  address private my_private_address;\n}\n\ncontract StorageMockWithBytes {\n  bytes internal my_bytes;\n  bytes8 internal my_bytes8;\n  bytes32 internal my_bytes32;\n}\n\ncontract StorageMockWithConstants {\n  uint256 public constant my_public_uint256 = 256;\n  string internal constant my_internal_string = \"foo\";\n  uint8 private constant my_private_uint8 = 8;\n}\n\ncontract StorageMockWithArrays {\n  uint256[] public my_public_uint256_dynarray;\n  string[] internal my_internal_string_dynarray;\n  address[] private my_private_address_dynarray;\n  int8[10] public my_public_int8_staticarray;\n  bool[20] internal my_internal_bool_staticarray;\n  uint[30] private my_private_uint_staticarray;\n}\n\ncontract StorageMockWithMappings {\n  mapping(uint256 => string) public my_mapping;\n  mapping(uint256 => mapping(string => address)) internal my_nested_mapping;\n  mapping(uint256 => bool[]) private my_mapping_with_arrays;\n}\n\ncontract StorageMockWithFunctions {\n  function(uint) internal my_fun;\n  function(string memory, string memory)[] internal my_fun_dynarray;\n  function(uint) returns (address)[10] internal my_fun_staticarray;\n  mapping(uint256 => function(bool)) internal my_fun_mapping;\n}\n\ncontract StorageMockWithContracts {\n  SimpleStorageMock public my_contract;\n  SimpleStorageMock[] private my_contract_dynarray;\n  SimpleStorageMock[10] internal my_contract_staticarray;\n  mapping(uint256 => SimpleStorageMock) private my_contract_mapping;\n  mapping(uint256 => SimpleStorageMock[]) private my_contract_dynarray_mapping;\n  mapping(uint256 => SimpleStorageMock[10]) private my_contract_staticarray_mapping;\n}\n\ncontract StorageMockWithStructs {\n  struct MyStruct {\n    uint256 struct_uint256;\n    string struct_string;\n    address struct_address;\n  }  \n\n  MyStruct internal my_struct;\n  MyStruct[] private my_struct_dynarray;\n  MyStruct[10] internal my_struct_staticarray;\n  mapping(uint256 => MyStruct) private my_struct_mapping;\n}\n\ncontract StorageMockWithEnums {\n  enum MyEnum { State1, State2 }\n \n  MyEnum public my_enum;\n  MyEnum[] internal my_enum_dynarray;\n  MyEnum[10] internal my_enum_staticarray;\n  mapping(uint256 => MyEnum) private my_enum_mapping;\n}\n\ncontract StorageMockWithComplexStructs {\n  struct MyStruct {\n    uint256[] uint256_dynarray;\n    mapping(string => StorageMockWithEnums.MyEnum) mapping_enums;\n    StorageMockWithStructs.MyStruct other_struct;\n  }\n\n  MyStruct internal my_struct;\n  StorageMockWithStructs.MyStruct internal my_other_struct;\n}\n\ncontract StorageMockWithRecursiveStructs {\n  struct MyStruct {\n    OtherStruct[] other_structs;\n  }\n\n  struct OtherStruct {\n    MyStruct my_struct;\n  }\n\n  MyStruct internal my_struct;\n}\n\ncontract StorageMockMixed is StorageMockWithStructs, StorageMockWithEnums, SimpleStorageMock {\n}\n",
  "sourcePath": "/Volumes/hd2/Sandbox/zos/packages/lib/contracts/mocks/StorageMocks.sol",
  "compiler": {
    "name": "solc",
    "version": "0.5.3+commit.10d17f24.Emscripten.clang"
  },
  "schemaVersion": "3.0.2",
  "updatedAt": "2019-06-13T20:08:01.173Z",
  "devdoc": {
    "methods": {}
  },
  "userdoc": {
    "methods": {}
  }
}