{
  "contractName": "WithoutInitialize",
  "abi": [
    {
      "constant": true,
      "inputs": [],
      "name": "say",
      "outputs": [
        {
          "name": "",
          "type": "string"
        }
      ],
      "payable": false,
      "stateMutability": "pure",
      "type": "function"
    }
  ],
  "bytecode": "0x608060405234801561001057600080fd5b50610139806100206000396000f3fe608060405234801561001057600080fd5b5060043610610048576000357c010000000000000000000000000000000000000000000000000000000090048063954ab4b21461004d575b600080fd5b6100556100d0565b6040518080602001828103825283818151815260200191508051906020019080838360005b8381101561009557808201518184015260208101905061007a565b50505050905090810190601f1680156100c25780820380516001836020036101000a031916815260200191505b509250505060405180910390f35b60606040805190810160405280601181526020017f576974686f7574496e697469616c697a6500000000000000000000000000000081525090509056fea165627a7a72305820769a1eb1cbc8a7f481f2bdffad8d67c96b197900f4d5be93608320c5eeb072e50029",
  "source": "pragma solidity ^0.5.0;\n\nimport \"../Initializable.sol\";\n\ncontract WithInitialize {\n  uint public value;\n\n  function initialize() public {\n    value = 42;\n  }\n}\n\ncontract AnotherWithInitialize is Initializable {\n  uint public anotherValue;\n\n  function init() initializer public {\n    anotherValue = 42;\n  }\n}\n\ncontract WithoutInitialize {\n  function say() public pure returns (string memory) {\n    return \"WithoutInitialize\";\n  }\n}\n\ncontract WithBaseUninitialized is WithInitialize, AnotherWithInitialize {\n  uint public someValue;\n\n  function initialize() public {\n    someValue = 42;\n  }\n}\n\ncontract WithBaseInitialized is WithInitialize, AnotherWithInitialize {\n  uint public someValue;\n\n  function initialize() public {\n    WithInitialize.initialize();\n    AnotherWithInitialize.init();\n    someValue = 42;\n  }\n}\n\ncontract WithSimpleBaseUninitialized is WithoutInitialize {\n  uint public someValue;\n\n  function initialize() public {\n    someValue = 42;\n  }\n}\n\ncontract ShouldHaveInitialize is WithInitialize, AnotherWithInitialize {\n  uint public someValue;\n}\n\ncontract DoesNotNeedAnInitialize is WithInitialize, WithoutInitialize {\n  uint public someValue;\n}\n\ncontract ExtendsFromShouldHaveInitialize is ShouldHaveInitialize {\n  uint public someOtherValue;\n}\n",
  "sourcePath": "/Volumes/hd2/Sandbox/zos/packages/lib/contracts/mocks/WithInitialize.sol",
  "compiler": {
    "name": "solc",
    "version": "0.5.3+commit.10d17f24.Emscripten.clang"
  },
  "schemaVersion": "3.0.2",
  "updatedAt": "2019-06-13T20:08:01.192Z",
  "devdoc": {
    "methods": {}
  },
  "userdoc": {
    "methods": {}
  }
}