{
  "contractName": "WithParentWithInitialValuesInFieldsDeclarations",
  "abi": [
    {
      "constant": true,
      "inputs": [],
      "name": "allaps",
      "outputs": [
        {
          "name": "",
          "type": "string"
        }
      ],
      "payable": false,
      "stateMutability": "view",
      "type": "function"
    },
    {
      "constant": true,
      "inputs": [],
      "name": "myVar",
      "outputs": [
        {
          "name": "",
          "type": "string"
        }
      ],
      "payable": false,
      "stateMutability": "view",
      "type": "function"
    },
    {
      "constant": true,
      "inputs": [],
      "name": "doSomething",
      "outputs": [
        {
          "name": "",
          "type": "string"
        }
      ],
      "payable": false,
      "stateMutability": "pure",
      "type": "function"
    }
  ],
  "bytecode": "0x60806040526040805190810160405280600681526020017f616c6c61707300000000000000000000000000000000000000000000000000008152506000908051906020019061004f929190610062565b5034801561005c57600080fd5b50610107565b828054600181600116156101000203166002900490600052602060002090601f016020900481019282601f106100a357805160ff19168380011785556100d1565b828001600101855582156100d1579182015b828111156100d05782518255916020019190600101906100b5565b5b5090506100de91906100e2565b5090565b61010491905b808211156101005760008160009055506001016100e8565b5090565b90565b610391806101166000396000f3fe608060405234801561001057600080fd5b506004361061005e576000357c0100000000000000000000000000000000000000000000000000000000900480638269267914610063578063bc4b0e64146100e6578063c6b9154014610169575b600080fd5b61006b6101ec565b6040518080602001828103825283818151815260200191508051906020019080838360005b838110156100ab578082015181840152602081019050610090565b50505050905090810190601f1680156100d85780820380516001836020036101000a031916815260200191505b509250505060405180910390f35b6100ee610229565b6040518080602001828103825283818151815260200191508051906020019080838360005b8381101561012e578082015181840152602081019050610113565b50505050905090810190601f16801561015b5780820380516001836020036101000a031916815260200191505b509250505060405180910390f35b6101716102c7565b6040518080602001828103825283818151815260200191508051906020019080838360005b838110156101b1578082015181840152602081019050610196565b50505050905090810190601f1680156101de5780820380516001836020036101000a031916815260200191505b509250505060405180910390f35b60606040805190810160405280600281526020017f646f000000000000000000000000000000000000000000000000000000000000815250905090565b60008054600181600116156101000203166002900480601f0160208091040260200160405190810160405280929190818152602001828054600181600116156101000203166002900480156102bf5780601f10610294576101008083540402835291602001916102bf565b820191906000526020600020905b8154815290600101906020018083116102a257829003601f168201915b505050505081565b60018054600181600116156101000203166002900480601f01602080910402602001604051908101604052809291908181526020018280546001816001161561010002031660029004801561035d5780601f106103325761010080835404028352916020019161035d565b820191906000526020600020905b81548152906001019060200180831161034057829003601f168201915b50505050508156fea165627a7a7230582056e6efa397fdb10a86b21bfcc7f06907e87e62787f928f751fc380b2ee5bc3990029",
  "source": "pragma solidity ^0.5.0;\n\ncontract WithoutInitialValuesInFieldsDeclarations {\n  uint constant myConst = 115994;\n\n  function doSomething() public pure returns (string memory) {\n    return 'do';\n  }\n}\n\ncontract WithInitialValuesInFieldsDeclarations {\n  string public allaps = 'allaps';\n\n  function doSomething() public pure returns (string memory) {\n    return 'do';\n  }\n}\n\ncontract WithParentWithInitialValuesInFieldsDeclarations is WithInitialValuesInFieldsDeclarations {\n  string public myVar;\n\n  function doSomething() public pure returns (string memory) {\n    return 'do';\n  }\n}\n\n",
  "sourcePath": "/Volumes/hd2/Sandbox/zos/packages/lib/contracts/mocks/WithInitialValues.sol",
  "compiler": {
    "name": "solc",
    "version": "0.5.3+commit.10d17f24.Emscripten.clang"
  },
  "schemaVersion": "3.0.2",
  "updatedAt": "2019-06-13T20:08:01.189Z",
  "devdoc": {
    "methods": {}
  },
  "userdoc": {
    "methods": {}
  }
}