{
  "contractName": "WithConstructor",
  "abi": [
    {
      "constant": true,
      "inputs": [],
      "name": "value",
      "outputs": [
        {
          "name": "",
          "type": "uint256"
        }
      ],
      "payable": false,
      "stateMutability": "view",
      "type": "function"
    },
    {
      "inputs": [],
      "payable": false,
      "stateMutability": "nonpayable",
      "type": "constructor"
    },
    {
      "constant": true,
      "inputs": [],
      "name": "say",
      "outputs": [
        {
          "name": "",
          "type": "string"
        }
      ],
      "payable": false,
      "stateMutability": "pure",
      "type": "function"
    }
  ],
  "bytecode": "0x608060405234801561001057600080fd5b50602a600081905550610168806100286000396000f3fe608060405234801561001057600080fd5b5060043610610053576000357c0100000000000000000000000000000000000000000000000000000000900480633fa4f24514610058578063954ab4b214610076575b600080fd5b6100606100f9565b6040518082815260200191505060405180910390f35b61007e6100ff565b6040518080602001828103825283818151815260200191508051906020019080838360005b838110156100be5780820151818401526020810190506100a3565b50505050905090810190601f1680156100eb5780820380516001836020036101000a031916815260200191505b509250505060405180910390f35b60005481565b60606040805190810160405280600f81526020017f57697468436f6e7374727563746f72000000000000000000000000000000000081525090509056fea165627a7a72305820769e1bbcec00fb20f8032cf55637c711d4466a9459530023b07919acb172f0910029",
  "source": "pragma solidity ^0.5.0;\n\ncontract WithConstructor {\n  uint256 public value;\n\n  constructor() public {\n    value = 42;\n  }\n\n  function say() public pure returns (string memory) {\n    return \"WithConstructor\";\n  }\n}\n\ncontract WithFailingConstructor {\n  constructor() public {\n    assert(false);\n  }\n}\n\ncontract WithSelfDestruct {\n  uint256 public value;\n\n  constructor() public {\n    if (true)\n      selfdestruct(msg.sender);\n  }\n\n  function say() public pure returns (string memory) {\n    return \"WithSelfDestruct\";\n  }\n}\n\ncontract WithParentWithSelfDestruct is WithSelfDestruct {\n  function say() public pure returns (string memory) {\n    return \"WithParentWithSelfDestruct\";\n  }\n}\n\ncontract WithDelegateCall {\n  constructor(address _e) public {\n    // bytes4(keccak256(\"kill()\")) == 0x41c0e1b5\n    bytes memory data = \"\\x41\\xc0\\xe1\\xb5\";\n    (bool success,) = _e.delegatecall(data);\n    require(success);\n  }\n  \n  function say() public pure returns (string memory) {\n    return \"WithDelegateCall\";\n  }\n}\n\ncontract WithParentWithDelegateCall is WithDelegateCall {\n  constructor(address _e) public WithDelegateCall(_e) {\n  }\n\n  function say() public pure returns (string memory) {\n    return \"WithParentWithDelegateCall\";\n  }\n}\n\ncontract WithConstructorImplementation {\n  uint256 public value;\n  string public text;\n\n  constructor(uint256 _value, string memory _text) public {\n    require(_value > 0);\n    value = _value;\n    text = _text;\n  }\n}\n",
  "sourcePath": "/Volumes/hd2/Sandbox/zos/packages/lib/contracts/mocks/Invalid.sol",
  "compiler": {
    "name": "solc",
    "version": "0.5.3+commit.10d17f24.Emscripten.clang"
  },
  "schemaVersion": "3.0.2",
  "updatedAt": "2019-06-13T20:08:00.962Z",
  "devdoc": {
    "methods": {}
  },
  "userdoc": {
    "methods": {}
  }
}