{
  "contractName": "WithLibraryMock",
  "abi": [
    {
      "constant": true,
      "inputs": [],
      "name": "reply",
      "outputs": [
        {
          "name": "",
          "type": "uint256"
        }
      ],
      "payable": false,
      "stateMutability": "pure",
      "type": "function"
    }
  ],
  "bytecode": "0x608060405234801561001057600080fd5b50610139806100206000396000f3fe608060405234801561001057600080fd5b5060043610610048576000357c0100000000000000000000000000000000000000000000000000000000900480636e3939751461004d575b600080fd5b61005561006b565b6040518082815260200191505060405180910390f35b600073__MyLibrary_____________________________6385bb7d696040518163ffffffff167c010000000000000000000000000000000000000000000000000000000002815260040160206040518083038186803b1580156100cd57600080fd5b505af41580156100e1573d6000803e3d6000fd5b505050506040513d60208110156100f757600080fd5b810190808051906020019092919050505090509056fea165627a7a723058205e1570b60439b0a92c0e5d7ac25bdce5417a94ed4cfba6fe31353a10d2cf30530029",
  "source": "pragma solidity ^0.5.0;\n\nlibrary MyLibrary {\n  function answer() external pure returns(uint256) {\n    return 42;\n  }\n}\n\ncontract WithLibraryMock {\n  function reply() external pure returns(uint256) {\n    return MyLibrary.answer();\n  }\n}",
  "sourcePath": "/Volumes/hd2/Sandbox/zos/packages/lib/contracts/mocks/WithLibrary.sol",
  "compiler": {
    "name": "solc",
    "version": "0.5.3+commit.10d17f24.Emscripten.clang"
  },
  "schemaVersion": "3.0.2",
  "updatedAt": "2019-06-13T20:08:01.201Z",
  "devdoc": {
    "methods": {}
  },
  "userdoc": {
    "methods": {}
  }
}