{
  "contractName": "WithStructInConstructor",
  "abi": [
    {
      "constant": true,
      "inputs": [],
      "name": "localData",
      "outputs": [
        {
          "name": "foo",
          "type": "string"
        },
        {
          "name": "bar",
          "type": "string"
        },
        {
          "name": "buz",
          "type": "uint256"
        }
      ],
      "payable": false,
      "stateMutability": "view",
      "type": "function"
    },
    {
      "constant": true,
      "inputs": [],
      "name": "sender",
      "outputs": [
        {
          "name": "",
          "type": "address"
        }
      ],
      "payable": false,
      "stateMutability": "view",
      "type": "function"
    },
    {
      "inputs": [
        {
          "components": [
            {
              "name": "foo",
              "type": "string"
            },
            {
              "name": "bar",
              "type": "string"
            },
            {
              "name": "buz",
              "type": "uint256"
            }
          ],
          "name": "_data",
          "type": "tuple"
        }
      ],
      "payable": false,
      "stateMutability": "nonpayable",
      "type": "constructor"
    },
    {
      "constant": true,
      "inputs": [],
      "name": "foo",
      "outputs": [
        {
          "name": "",
          "type": "string"
        }
      ],
      "payable": false,
      "stateMutability": "view",
      "type": "function"
    },
    {
      "constant": true,
      "inputs": [],
      "name": "bar",
      "outputs": [
        {
          "name": "",
          "type": "string"
        }
      ],
      "payable": false,
      "stateMutability": "view",
      "type": "function"
    },
    {
      "constant": true,
      "inputs": [],
      "name": "buz",
      "outputs": [
        {
          "name": "",
          "type": "uint256"
        }
      ],
      "payable": false,
      "stateMutability": "view",
      "type": "function"
    }
  ],
  "bytecode": "0x60806040523480156200001157600080fd5b5060405160608062000941833981018060405262000033919081019062000286565b806000015160008001908051906020019062000051929190620000c8565b5080602001516000600101908051906020019062000071929190620000c8565b50806040015160006002018190555033600360006101000a81548173ffffffffffffffffffffffffffffffffffffffff021916908373ffffffffffffffffffffffffffffffffffffffff1602179055505062000366565b828054600181600116156101000203166002900490600052602060002090601f016020900481019282601f106200010b57805160ff19168380011785556200013c565b828001600101855582156200013c579182015b828111156200013b5782518255916020019190600101906200011e565b5b5090506200014b91906200014f565b5090565b6200017491905b808211156200017057600081600090555060010162000156565b5090565b90565b600082601f83011215156200018b57600080fd5b8151620001a26200019c82620002f9565b620002cb565b91508082526020830160208301858383011115620001bf57600080fd5b620001cc83828462000330565b50505092915050565b600060608284031215620001e857600080fd5b620001f46060620002cb565b9050600082015167ffffffffffffffff8111156200021157600080fd5b6200021f8482850162000177565b600083015250602082015167ffffffffffffffff8111156200024057600080fd5b6200024e8482850162000177565b6020830152506040620002648482850162000270565b60408301525092915050565b60006200027e825162000326565b905092915050565b6000602082840312156200029957600080fd5b600082015167ffffffffffffffff811115620002b457600080fd5b620002c284828501620001d5565b91505092915050565b6000604051905081810181811067ffffffffffffffff82111715620002ef57600080fd5b8060405250919050565b600067ffffffffffffffff8211156200031157600080fd5b601f19601f8301169050602081019050919050565b6000819050919050565b60005b838110156200035057808201518184015260208101905062000333565b8381111562000360576000848401525b50505050565b6105cb80620003766000396000f3fe608060405234801561001057600080fd5b5060043610610074576000357c0100000000000000000000000000000000000000000000000000000000900480634efe82681461007957806367e404ce14610099578063bbe8f084146100b7578063c2985578146100d5578063febb0f7e146100f3575b600080fd5b610081610111565b6040516100909392919061049b565b60405180910390f35b6100a1610259565b6040516100ae919061045e565b60405180910390f35b6100bf61027f565b6040516100cc91906104e0565b60405180910390f35b6100dd61028b565b6040516100ea9190610479565b60405180910390f35b6100fb61032f565b6040516101089190610479565b60405180910390f35b6000806000018054600181600116156101000203166002900480601f0160208091040260200160405190810160405280929190818152602001828054600181600116156101000203166002900480156101ab5780601f10610180576101008083540402835291602001916101ab565b820191906000526020600020905b81548152906001019060200180831161018e57829003601f168201915b505050505090806001018054600181600116156101000203166002900480601f0160208091040260200160405190810160405280929190818152602001828054600181600116156101000203166002900480156102495780601f1061021e57610100808354040283529160200191610249565b820191906000526020600020905b81548152906001019060200180831161022c57829003601f168201915b5050505050908060020154905083565b600360009054906101000a900473ffffffffffffffffffffffffffffffffffffffff1681565b60008060020154905090565b6060600080018054600181600116156101000203166002900480601f0160208091040260200160405190810160405280929190818152602001828054600181600116156101000203166002900480156103255780601f106102fa57610100808354040283529160200191610325565b820191906000526020600020905b81548152906001019060200180831161030857829003601f168201915b5050505050905090565b606060006001018054600181600116156101000203166002900480601f0160208091040260200160405190810160405280929190818152602001828054600181600116156101000203166002900480156103ca5780601f1061039f576101008083540402835291602001916103ca565b820191906000526020600020905b8154815290600101906020018083116103ad57829003601f168201915b5050505050905090565b6103dd81610511565b82525050565b60006103ee82610506565b80845261040281602086016020860161054d565b61040b81610580565b602085010191505092915050565b6000610424826104fb565b80845261043881602086016020860161054d565b61044181610580565b602085010191505092915050565b61045881610543565b82525050565b600060208201905061047360008301846103d4565b92915050565b6000602082019050818103600083015261049381846103e3565b905092915050565b600060608201905081810360008301526104b58186610419565b905081810360208301526104c98185610419565b90506104d8604083018461044f565b949350505050565b60006020820190506104f5600083018461044f565b92915050565b600081519050919050565b600081519050919050565b600061051c82610523565b9050919050565b600073ffffffffffffffffffffffffffffffffffffffff82169050919050565b6000819050919050565b60005b8381101561056b578082015181840152602081019050610550565b8381111561057a576000848401525b50505050565b6000601f19601f830116905091905056fea265627a7a7230582087c649166698b86a39a6bd3acf6e704d271300847915eeb47239cc9a225c76676c6578706572696d656e74616cf50037",
  "source": "pragma experimental ABIEncoderV2;\n\ncontract WithStructInConstructor {\n\n  struct Data {\n    string foo;\n    string bar;\n    uint256 buz;\n  }\n\n  Data public localData;\n  address public sender;\n\n  constructor(Data memory _data) public {\n    localData.foo = _data.foo;\n    localData.bar = _data.bar;\n    localData.buz = _data.buz;\n    sender = msg.sender;\n  }\n\n  function foo() public view returns (string memory) {\n    return localData.foo;\n  }\n\n  function bar() public view returns (string memory) {\n    return localData.bar;\n  }\n\n  function buz() public view returns (uint256) {\n    return localData.buz;\n  }\n}\n",
  "sourcePath": "/Volumes/hd2/Sandbox/zos/packages/lib/contracts/mocks/WithStructInConstructor.sol",
  "compiler": {
    "name": "solc",
    "version": "0.5.3+commit.10d17f24.Emscripten.clang"
  },
  "schemaVersion": "3.0.2",
  "updatedAt": "2019-06-13T20:08:01.201Z",
  "devdoc": {
    "methods": {}
  },
  "userdoc": {
    "methods": {}
  }
}